:020000040800F2
:1000000000000120C5020008CB020008CF02000852
:1000100041030008450300088D03000800000000AC
:10002000000000000000000000000000D5030008F0
:10003000D903000800000000DD03000811140008C7
:10004000F1030008F1030008F1030008F1030008C0
:10005000F1030008F1030008F1030008F1030008B0
:10006000F1030008F1030008F1030008F1030008A0
:10007000F1030008F1030008F1030008F103000890
:10008000F1030008F1030008F1030008000000007C
:10009000000000000000000000000000F103000864
:1000A000F1030008F1030008F1030008F103000860
:1000B000F1030008F1030008F1030008F103000850
:1000C000F1030008F1030008F1030008F103000840
:1000D000F1030008F1030008F1030008000000002C
:1000E000F1030008F1030008F1030008000000001C
:1000F000000000000000000000000000F103000804
:1001000000000000F1030008F1030008F1030008FB
:1001100000000000000000000000000000000000DF
:10012000F1030008F1030008F1030008F1030008DF
:10013000F1030008000000000000000000000000C3
:10014000000000000000000000000000F1030008B3
:10015000F1030008F1030008F1030008F1030008AF
:10016000F1030008F1030008000000000000000097
:10017000000000000000000000000000000000007F
:1001800000000000F1030008000000000000000073
:10019000F103000800B583B000F0BAF9384B394AD2
:1001A0001360394A1360394900E02146384B9942BF
:1001B0000BD20A684B6801F10C0488689842F4D9A4
:1001C0001168196004330432F8E72E4B1A68314B7A
:1001D0009A4200D0FEE72C4B1A682F4B9A42F9D175
:1001E000274B2E4A13602E4A13602E4B05E0002049
:1001F000106004329342FAD80B462B4A934204D241
:10020000194651F8082B5B68F4E7244B1B6813B9B7
:10021000234B1B6803B1FEE700F086F9694601A88D
:1002200000F022F9214C224BE41AA4100025AC4224
:1002300014DC204C204BE41AA4100025AC4213DC43
:100240000099019801F006F905461C4C1C4BE41A74
:10025000A410002C0EDC284600F0E2F8144B53F8F2
:10026000253098470135E2E7134B53F8253098477E
:100270000135E3E7013C124B53F824309847E8E797
:10028000BABADECA0000002074000020F40300089F
:100290000C04000878563412325476987800002006
:1002A000180100200C0400081C0400081C040008AD
:1002B0001C0400081C0400081C0400081C0400089E
:1002C0001C04000808B5FFF765FF00BEFEE71EF03E
:1002D000040F0CBFEFF30880EFF309807146414A29
:1002E00010472DE9F04182B004468846124B5E6B00
:1002F0009F6B9D6A1B6B13F0020F03D00E4BDB6AE2
:10030000002B0CDB0D4800F0B7F8CDF800803B4621
:1003100032462946204600F00BF900BEFEE74BF6B8
:10032000AB6100F07FF90028ECD0034B4FF00042A6
:10033000DA6202B0BDE8F08100ED00E0B41E000812
:1003400000BEFEE71EF0040F0CBFEFF30880EFF3D2
:1003500009807146244A10472DE9F04182B00446D5
:100360008846084B5E6B9F6B9D6A074800F084F8D7
:10037000CDF800803B4632462946204600F0D8F8AA
:1003800000BEFEE700ED00E0C41E00081EF0040FF2
:100390000CBFEFF30880EFF309807146134A104752
:1003A0002DE9F04182B004468846084B5E6B9F6B96
:1003B0009D6A074800F060F8CDF800803B46324661
:1003C0002946204600F0B4F800BEFEE700ED00E04C
:1003D000D01E000800BEFEE700BEFEE700BEFEE73E
:1003E00070470000E302000859030008A103000859
:0403F00000BEFEE766
:1003F400241F00080000002078000020241F0008AB
:100404000000001000000010780000201C010020F3
:080414000000001000000010C0
:10042000FEE7000008B503460C4A12685AB10B4AB1
:100430001068033323F003030344094A934206D8A8
:10044000064A136008BD054A06491160EFE701F04E
:1004500029F80C2303604FF0FF30F3E77C00002005
:1004600000FC00201C01002001230360014B0B60F5
:10047000704700BF040000200FB400B583B004AB88
:1004800053F8042B01938021064801F03DF8002821
:1004900003DD0146034800F037F803B05DF804EBD4
:1004A00004B07047840000202DE9F04385B0044675
:1004B0000F4643560BB10E461EE004252846214642
:1004C000ABBE0446384605B0BDE8F08314F9011B05
:1004D00004AA1A4402F8101C0133AB42F6D304AA52
:1004E0001344002203F8102C4FF00408E94640465C
:1004F0004946ABBE8046761B002EE3D03546102E13
:1005000028BF10250023E8E708B5FFF7CDFF08BD99
:1005100008B500F097F8024A024B9A6008BD00BF88
:100520000000000800ED00E008B500F0ABF808BDE1
:10053000F8B504460D4617461E462748FFF79CFFB0
:1005400021682648FFF798FF61682548FFF794FF68
:10055000A1682448FFF790FFE1682348FFF78CFF6C
:1005600021692248FFF788FF61692148FFF784FF6E
:10057000A1692048FFF780FFE1691F48FFF77CFF72
:100580001E48FFF779FF29461D48FFF775FF1D4CF0
:10059000E16A1D48FFF770FF216B1C48FFF76CFFF5
:1005A000E16B1B48FFF768FF15F0800F0AD115F4C7
:1005B000004F0CD11748FFF75FFF06991648FFF769
:1005C0005BFFF8BD39461548FFF756FFEFE73146A8
:1005D0001348FFF751FFEDE7981D0008A81D00081C
:1005E000B81D0008C81D0008D81D0008E81D000837
:1005F000F81D0008081E0008181E0008281E000824
:10060000341E000800ED00E0441E0008541E0008DF
:10061000641E0008941E00089C1E0008741E00083A
:10062000841E000883691A888A4201D0002070471E
:100630000268033A012A03D802338361012070471C
:10064000002070470C4B1A6842F001021A6000212A
:1006500099601A6822F0847222F480321A60074A84
:100660005A601A6822F480221A60D960044B4FF055
:1006700000629A60704700BF0038024010300024CA
:1006800000ED00E0224B9B6803F00C03042B14D018
:10069000082B16D01BB11F4B1F4A1A6002E01D4BDE
:1006A0001D4A1A601A4B9B68C3F303131B4AD15CA3
:1006B000184A1368CB4013607047164B184A1A60EB
:1006C000F0E7134B5A685B6803F03F0312F4800FA6
:1006D00013D0134AB2FBF3F20D4B5B68C3F38813DC
:1006E00003FB02F30A4A5268C2F30142013252008C
:1006F000B3FBF2F3074A1360D4E7074AB2FBF3F205
:10070000034B5B68C3F3881303FB02F3EAE700BF04
:10071000003802400C0000200024F400E01E000815
:1007200040787D01022800F2D9800F2900F2D6809E
:10073000032A00F2D38010B4032A08D8DFE802F0BD
:1007400002396B9D012814D018B1022821D010BCA9
:100750007047634B18684900012202FA01F420EA4D
:1007600004001860186811448A4020EA02021A60E6
:10077000EDE75C4B18684900012202FA01F420EA17
:1007800004001860186811448A4020EA02021A60C6
:10079000DDE7554B18684900012202FA01F420EA0E
:1007A00004001860186811448A4020EA02021A60A6
:1007B000CDE7012820D080B10228C8D14A4B186863
:1007C0004900012202FA01F420431860186811441C
:1007D0008A4020EA02021A60B9E7414B18684900D2
:1007E000012202FA01F420431860186811448A407B
:1007F00020EA02021A60AAE73A4B1868490001226F
:1008000002FA01F420431860186811448A4020EA73
:1008100002021A609BE7012820D080B1022896D1FD
:10082000314B18684900012202FA01F420EA040061
:100830001860186811448A4002431A6087E7284B01
:1008400018684900012202FA01F420EA0400186045
:10085000186811448A4002431A6078E7214B1868EF
:100860004900012202FA01F420EA04001860186825
:1008700011448A4002431A6069E7012820D088B1F8
:1008800002287FF464AF184B18684900012202FA6D
:1008900001F4204318601868114402FA01F1014381
:1008A000196054E70E4B18684900012202FA01F45E
:1008B00020431860186811448A4002431A6046E7D2
:1008C000084B18684900012202FA01F4204318601D
:1008D000186811448A4002431A6038E7704700BF25
:1008E000000002400004024000080240022803D831
:1008F0000F2901D8012A00D9704712B1012A21D04D
:10090000704701280CD010B1022812D070471C4843
:100910004368012202FA01F123EA010343607047B0
:1009200018484368012202FA01F123EA01034360F7
:10093000704715484368012202FA01F123EA0103D6
:100940004360704701280BD010B1022810D07047C7
:100950000B484368012202FA01F10B4343607047E0
:1009600008484368012202FA01F10B4343607047D3
:1009700005484368012202FA01F10B434360BBE7DB
:10098000000002400004024000080240022800F279
:10099000D9800F2900F2D680032A00F2D38010B448
:1009A000032A08D8DFE802F002396B9D012814D031
:1009B00018B1022821D010BC7047634B98684900D9
:1009C000012202FA01F420EA0400986098681144B8
:1009D0008A4020EA02029A60EDE75C4B9868490081
:1009E000012202FA01F420EA040098609868114498
:1009F0008A4020EA02029A60DDE7554B9868490078
:100A0000012202FA01F420EA040098609868114477
:100A10008A4020EA02029A60CDE7012820D080B106
:100A20000228C8D14A4B98684900012202FA01F411
:100A300020439860986811448A4020EA02029A6034
:100A4000B9E7414B98684900012202FA01F42043BA
:100A50009860986811448A4020EA02029A60AAE7E6
:100A60003A4B98684900012202FA01F42043986049
:100A7000986811448A4020EA02029A609BE70128A4
:100A800020D080B1022896D1314B986849000122CC
:100A900002FA01F420EA04009860986811448A4040
:100AA00002439A6087E7284B98684900012202FABE
:100AB00001F420EA04009860986811448A400243D7
:100AC0009A6078E7214B98684900012202FA01F404
:100AD00020EA04009860986811448A4002439A60B2
:100AE00069E7012820D088B102287FF464AF184B51
:100AF00098684900012202FA01F42043986098683E
:100B0000114402FA01F10143996054E70E4B9868D1
:100B10004900012202FA01F42043986098681144C8
:100B20008A4002439A6046E7084B986849000122D0
:100B300002FA01F420439860986811448A40024305
:100B40009A6038E7704700BF00000240000402408E
:100B500000080240022803D80F2901D8012A00D931
:100B6000704712B1012A21D0704701280CD010B172
:100B7000022812D070471C484369012202FA01F191
:100B800023EA01034361704718484369012202FACE
:100B900001F123EA010343617047154843690122CB
:100BA00002FA01F123EA01034361704701280BD0E7
:100BB00010B1022810D070470B484369012202FA95
:100BC00001F10B434361704708484369012202FA6F
:100BD00001F10B434361704705484369012202FA62
:100BE00001F10B434361BBE70000024000040240F7
:100BF0000008024008B5002208211046FFF7AAFFAE
:100C0000002209211046FFF7A5FF00220A21104605
:100C1000FFF7A0FF00220B211046FFF79BFF0022E9
:100C20000C211046FFF796FF00220D211046FFF71A
:100C300091FF00220E211046FFF78CFF00220F21AA
:100C40001046FFF787FF08BD08B5012200210846BE
:100C5000FFF768FD012211460020FFF763FD012226
:100C600002210020FFF75EFD012203210020FFF793
:100C700059FD012204210020FFF754FD0122052126
:100C80000020FFF74FFD012206210020FFF74AFD5B
:100C9000012207210020FFF745FD01220821002045
:100CA000FFF740FD012209210020FFF73BFD012253
:100CB0000A210020FFF736FD01220B210020FFF75B
:100CC00031FD01220C210020FFF72CFD01220D2116
:100CD0000020FFF727FD01220E210020FFF722FD53
:100CE00001220F210020FFF71DFD002211461046B2
:100CF000FFF7FCFD002201211046FFF7F7FD00225F
:100D000002211046FFF7F2FD002211461046FFF7C0
:100D1000EDFD002204211046FFF7E8FD0022052129
:100D20001046FFF7E3FD002206211046FFF7DEFD27
:100D3000002207211046FFF7D9FD002208211046A6
:100D4000FFF7D4FD002209211046FFF7CFFD002256
:100D50000A211046FFF7CAFD00220B211046FFF7BB
:100D6000C5FD00220C211046FFF7C0FD00220D2119
:100D70001046FFF7BBFD00220E211046FFF7B6FD1F
:100D800000220F211046FFF7B1FD00221146104648
:100D9000FFF7FCFD002201211046FFF7F7FD0022BE
:100DA00002211046FFF7F2FD002203211046FFF753
:100DB000EDFD002204211046FFF7E8FD0022052189
:100DC0001046FFF7E3FD002206211046FFF7DEFD87
:100DD000002207211046FFF7D9FD00220821104606
:100DE000FFF7D4FD002209211046FFF7CFFD0022B6
:100DF0000A211046FFF7CAFD00220B211046FFF71B
:100E0000C5FD00220C211046FFF7C0FD00220D2178
:100E10001046FFF7BBFD00220E211046FFF7B6FD7E
:100E200000220F211046FFF7B1FD012200210846E4
:100E3000FFF790FE012211460020FFF78BFE0122F2
:100E400002210020FFF786FE012203210020FFF788
:100E500081FE012204210020FFF77CFE01220521F2
:100E60000020FFF777FE012206210020FFF772FE27
:100E7000012207210020FFF76DFE08BD2DE9F04F8C
:100E800089B0C043C4B2C9435FFA81FAD2435FFA62
:100E900082F9DB435FFA83F89DF84830DB43DFB229
:100EA0009DF84C30DB43DEB29DF85030DB43DDB2C1
:100EB0009DF85430DB435FFA83FBFFF79BFE012272
:100EC00008210020FFF746FEC4F340030193C4F35A
:100ED00080010291C4F3C0000390C4F30013049393
:100EE000C4F340110591C4F380100690E309079301
:100EF00004F0010200210846FFF72CFE019A0121AF
:100F00000020FFF727FE029A02210020FFF722FEB1
:100F1000039A03210020FFF71DFE049A04210020FC
:100F2000FFF718FE059A05210020FFF713FE069A29
:100F300006210020FFF70EFE079A07210020FFF789
:100F400009FE0A2000F044FAFFF754FE01220921AD
:100F50000020FFF7FFFDCAF340030193CAF38001AD
:100F60000291CAF3C0000390CAF300140494CAF3B8
:100F700040130593CAF3801106914FEADA140AF080
:100F8000010200210846FFF7E5FD019A012100203A
:100F9000FFF7E0FD029A02210020FFF7DBFD039A34
:100FA00003210020FFF7D6FD049A04210020FFF75B
:100FB000D1FD059A05210020FFF7CCFD069A0621F8
:100FC0000020FFF7C7FD224607210020FFF7C2FDE2
:100FD0000A2000F0FDF9FFF70DFE01220A21002092
:100FE000FFF7B8FDC9F3400AC9F380030193C9F3C1
:100FF000C0010291C9F300100390C9F34014049496
:10100000C9F3801305934FEAD91409F001020021B6
:101010000846FFF79FFD524601210020FFF79AFD89
:10102000019A02210020FFF795FD029A032100207A
:10103000FFF790FD039A04210020FFF78BFD049A2F
:1010400005210020FFF786FD059A06210020FFF705
:1010500081FD224607210020FFF77CFD0A2000F0D9
:10106000B7F9FFF7C7FD01220B210020FFF772FD42
:10107000C8F3400AC8F38009C8F3C0030193C8F35A
:1010800000110291C8F340100390C8F38014049437
:101090004FEAD81408F0010200210846FFF75AFD74
:1010A000524601210020FFF755FD4A46022100204B
:1010B000FFF750FD019A03210020FFF74BFD029A34
:1010C00004210020FFF746FD039A05210020FFF7C9
:1010D00041FD049A06210020FFF73CFD224607212E
:1010E0000020FFF737FD0A2000F072F9FFF782FDBC
:1010F00001220C210020FFF72DFDC7F3400AC7F3A2
:101100008009C7F3C008C7F300130193C7F3401168
:101110000291C7F380100390FC0907F0010200213F
:101120000846FFF717FD524601210020FFF712FD88
:101130004A4602210020FFF70DFD42460321002010
:10114000FFF708FD019A04210020FFF703FD029A32
:1011500005210020FFF7FEFC039A06210020FFF77F
:10116000F9FC224607210020FFF7F4FC0A2000F0DA
:101170002FF9FFF73FFD01220D210020FFF7EAFCC8
:10118000C6F3400AC6F38009C6F3C008C6F30017C9
:10119000C6F340130193C6F380110291F40906F0DF
:1011A000010200210846FFF7D5FC5246012100202C
:1011B000FFF7D0FC4A4602210020FFF7CBFC424655
:1011C00003210020FFF7C6FC3A4604210020FFF768
:1011D000C1FC019A05210020FFF7BCFC029A062100
:1011E0000020FFF7B7FC224607210020FFF7B2FCE2
:1011F0000A2000F0EDF8FFF7FDFC01220E2100208F
:10120000FFF7A8FCC5F3400AC5F38009C5F3C00881
:10121000C5F30017C5F34016C5F380130193EC091D
:1012200005F0010200210846FFF794FC5246012117
:101230000020FFF78FFC4A4602210020FFF78AFCBE
:10124000424603210020FFF785FC3A460421002096
:10125000FFF780FC324605210020FFF77BFC019A56
:1012600006210020FFF776FC224607210020FFF729
:1012700071FC0A2000F0ACF8FFF7BCFC01220F2142
:101280000020FFF767FCCBF3400ACBF38009CBF3D8
:10129000C008CBF30017CBF34016CBF380154FEA11
:1012A000DB140BF0010200210846FFF753FC524605
:1012B00001210020FFF74EFC4A4602210020FFF7E3
:1012C00049FC424603210020FFF744FC3A46042132
:1012D0000020FFF73FFC324605210020FFF73AFCD3
:1012E0002A4606210020FFF735FC22460721002070
:1012F000FFF730FC0A2000F06BF8FFF77BFC09B029
:10130000BDE8F08F0F4A136843F0010313600E4BE2
:101310001A6822F001021A601A6822F002021A60AA
:101320001A6822F010021A601A6822F020021A606D
:101330001A6822F040021A601A6842F080021A60AD
:10134000704700BF0038024008380240032828D800
:101350001F2926D8032824D8DFE800F0020A141C2D
:1013600010480368012202FA01F119430160704735
:10137000072916D10C480368012202FA01F119432A
:101380000160704709480368012202FA01F119431C
:101390000160704705480368012202FA01F1194310
:1013A0000160704730380240343802404038024013
:1013B000064B1A6822F001021A601A6822F0020233
:1013C0001A601A6822F004021A60704710E000E008
:1013D0004FF47A7303FB00F00B4B18600B4A136851
:1013E00043F001031360094B1B6813F4803FFAD0EC
:1013F000064A136823F001031360002304321360CC
:1014000004321360704700BF14E000E010E000E019
:1014100008B50C4B1B786BB90B4B1A6822F0010214
:101420001A60002209490A6004310A601A6822F031
:1014300002021A60064B1B6803B19847024B1B68F7
:1014400008BD00BF0401002010E000E014E000E04F
:101450000801002000B585B0FFF754FF00210846C1
:10146000FFF774FFFFF7A4FFFFF7EEFB3E240394A2
:101470004825029552220192502300932946204686
:10148000FFF7FCFC4FF4FA70FFF7A2FF0394402132
:1014900002915A22019200952B462046FFF7EEFC5E
:1014A000E4E70000014B1868704700BF10000020FF
:1014B00030B5141E05469BB0184605DA8B232B6009
:1014C0004FF0FF301BB030BD4FF40273ADF80C305D
:1014D00014BF04F1FF332346029305934FF6FF73C5
:1014E00000910491ADF80E3002461E9B69462846D5
:1014F00000F072F8431CBCBF8B232B60002CE1D0A2
:10150000009B00221A70DDE707B5009313460A46D8
:10151000014603480068FFF7CBFF03B05DF804FB0A
:10152000100000202DE9F0478E689E4282460C464E
:101530009046994637D88A8912F4906F31D0256841
:1015400009696F1A6569022305EB450595FBF3F5FB
:1015500009F101033B449D4238BF1D46530530D578
:10156000294600F07FFB064650B90C23CAF800302C
:10157000A38943F04003A3814FF0FF30BDE8F0871B
:101580003A46216900F0FCFAA38923F4906343F002
:101590008003A381266165613E44ED1B2660A56042
:1015A0004E464E4500D94E4632464146206800F030
:1015B000F2FAA3689B1BA36023681E4426600020E8
:1015C000DCE72A4600F0A8FB06460028E2D12169A4
:1015D000504600F0F9FAC8E72DE9F04F9DB080467B
:1015E00003938B891D060C4616460FD50B696BB904
:1015F000402100F037FB2060206128B90C23C8F897
:1016000000304FF0FF30C7E04023636100230993AF
:1016100020238DF8293030238DF82A304FF0010B2C
:1016200037463D4615F8013B0BB1252B3ED1B7EBB4
:10163000060A0BD05346324621464046FFF772FF5A
:10164000013000F0A480099B534409933B78002BA0
:1016500000F09D8000234FF0FF32CDE90523049375
:1016600007938DF853301A932F46052217F8011B64
:101670004F4800F035FA049BD0B9D90644BF202268
:101680008DF853201A0744BF2B228DF853202A7857
:101690002A2A15D0079A2F4600200A25394611F824
:1016A000013B303B092B4DD9B8B10FE02F46B8E7CD
:1016B0003F4A801A0BFA00F0184304903D46D3E7E6
:1016C000039A111D12680391002A01DB079204E0BE
:1016D000524243F00203079204933B782E2B0CD125
:1016E0007B782A2B33D1039B1A1D1B680392002B96
:1016F000B8BF4FF0FF33023705932E4D39780322E0
:10170000284600F0EDF938B14023401B03FA00F001
:10171000049B034301370493397827488DF8281038
:1017200006227E1C00F0DCF9002838D0234B13BBC6
:10173000039B073323F0070308330393099B4B44B0
:1017400009936DE705FB023201200F46A6E700234F
:101750000137059319460A25384610F8012B303A0F
:10176000092A03D9002BC8D00591C6E705FB012142
:1017700001230746F0E703AB00932246104B04A970
:101780004046AFF30080B0F1FF3F8146D6D1A38938
:101790005B063FF536AF09981DB0BDE8F08F03AB8F
:1017A00000932246064B04A9404600F081F8EAE780
:1017B000F01E0008F61E0008FA1E000800000000D7
:1017C000251500082DE9F04791461F468A680B69E8
:1017D000DDF820809342B8BF1346C9F8003091F875
:1017E000432006460C4612B10133C9F80030236885
:1017F000990642BFD9F800300233C9F80030256895
:1018000015F0060507D104F1190AE368D9F800209C
:101810009B1AAB4228DC94F843302268003318BF8F
:10182000012392062DD404F1430239463046C047C5
:10183000013020D02368E568D9F8002003F00603C2
:10184000042B08BFAD1AA36822690CBF25EAE57511
:1018500000259342C4BF9B1AED184FF000091A34BB
:101860004D451AD1002008E0012352463946304642
:10187000C047013003D14FF0FF30BDE8F08701359C
:10188000C3E7E1185A1C302081F84300224494F841
:10189000451082F843100233C5E70123224639463A
:1018A0003046C0470130E6D009F10109D8E7000011
:1018B0002DE9F04301F1430C0C46097E85B06E29F9
:1018C0001746064698460C9A00F0B38022D8632942
:1018D00036D00AD8002900F0B980582900F083805A
:1018E00004F1420584F8421032E0642901D06929EC
:1018F000F6D120681368050603F104012AD51B6898
:101900001160002B03DA2D225B4284F843206F48DC
:101910000A2239E0732900F09D8008D86F2920D071
:101920007029DDD1236843F02003236003E075298B
:1019300017D07829D4D1782384F84530644855E00D
:101940001368191D1B68116004F1420584F84230C8
:1019500001238CE01B68116010F0400F18BF1BB210
:10196000CFE713682568181D1060280601D51B688D
:1019700002E06806FBD51B8854486F2914BF0A2271
:101980000822002184F843106568A560002DC0F28C
:101990009580216821F004012160002B3DD1002DAC
:1019A00040F08E806546082A0BD12368DB0708D5F6
:1019B000236962689A42DEBF302305F8013C05F1D5
:1019C000FF35ACEB05032361CDF800803B4603AA4D
:1019D00021463046FFF7F6FE01304DD14FF0FF3083
:1019E00005B0BDE8F083394884F8451013682168D4
:1019F0001D1D1B6815600A060BD5CA0744BF41F0C0
:101A0000200121601BB9226822F0200222601022EE
:101A1000B7E74D0648BF9BB2EFE76546B3FBF2F16F
:101A200002FB1133C35C05F8013D0B460029F5D1DB
:101A3000B9E7136825686169181D106028061B68DE
:101A400001D5196002E06A06FBD5198000232361E5
:101A50006546B9E71368191D11601D6862680021A9
:101A6000284600F03DF808B1401B606063682361C0
:101A7000002384F84330A7E723692A4639463046D5
:101A8000C0470130AAD023689B0713D4E068039BAA
:101A90009842B8BF1846A3E701234A463946304664
:101AA000C04701309AD00135E368039A9B1AAB42D4
:101AB000F2DCEBE7002504F11909F5E7002BACD1C6
:101AC000037884F8423004F142056CE7011F0008F6
:101AD000121F0008000000000000000000000000CD
:101AE00001F0FF01102A2BDB10F0070F08D010F8CF
:101AF000013B013A8B422DD010F0070F42B3F6D1D3
:101B0000F0B441EA012141EA014122F007047FF0EB
:101B100000070023F0E80256083C85EA010586EA42
:101B2000010685FA47F5A3FA87F586FA47F6A5FA7E
:101B300087F68EB9EED1F0BC01F0FF0102F007028A
:101B400032B110F8013B013A83EA010313B1F8D135
:101B50000020704701387047002D06BF3546033816
:101B6000073815F0010F07D1013015F4807F02BF4F
:101B7000013015F4C03F0130F0BC0138704700BFA0
:101B800010B5431E0A44914200D110BD11F8014B1B
:101B900003F8014FF7E7884210B501EB020307D8BD
:101BA000421E99420AD011F8014B02F8014FF8E7A2
:101BB0008342F5D98118D21AD34200D110BD13F84F
:101BC000014D01F8014DF7E738B50546002945D02C
:101BD00051F8043C0C1F002BB8BFE41800F0D2F8F9
:101BE0001F4A1368104633B9636014602846BDE885
:101BF000384000F0C8B8A3420CD92168621893425B
:101C000004BF1A685B68636004BF521822600460F6
:101C1000ECE713465A680AB1A242FAD91968581873
:101C2000A0420BD120680144581882421960DDD1CE
:101C3000106852685A6001441960D7E702D90C2332
:101C40002B60D3E7206821188A4204BF11685268CC
:101C5000626004BF091821605C60C7E738BD00BF3F
:101C60000C01002070B5CD1C25F0030508350C2DA6
:101C700038BF0C25002D064601DBA94203D90C23F1
:101C80003360002070BD00F07DF8214A14682146C1
:101C900091B9204C23681BB9304600F063F82060EE
:101CA0002946304600F05EF8431C24D10C233360F3
:101CB000304600F068F8E4E70B685B1B18D40B2B88
:101CC0000FD90B60CD50CC18304600F05CF804F111
:101CD0000B00231D20F00700C31AD3D05A42E25054
:101CE000D0E78C424B6816BF636013600C46EBE78D
:101CF0000C464968CCE7C41C24F00304A04205D07C
:101D0000211A304600F02EF80130CFD02560DBE7F5
:101D10000C01002010010020F8B5074614460E46BD
:101D200021B91146BDE8F840FFF79CBF22B9FFF783
:101D30004BFF25462846F8BD00F026F8A0420FD2FA
:101D400021463846FFF78EFF05460028F2D031467F
:101D50002246FFF715FF31463846FFF735FFE9E722
:101D60003546E7E738B5064C0023054608462360AC
:101D7000FEF758FB431C02D1236803B12B6038BD2A
:101D8000140100207047704751F8043C181F002BC5
:101D9000BCBF0B58C0187047537461636B206672E8
:101DA000616D653A0A000000205230203D20202558
:101DB0003038580A00000000205231203D202025F4
:101DC0003038580A00000000205232203D202025E3
:101DD0003038580A00000000205233203D202025D2
:101DE0003038580A0000000020523132203D2025B2
:101DF0003038580A00000000204C52203D20202599
:101E00003038580A00000000205043203D20202593
:101E10003038580A0000000020505352203D202541
:101E20003038580A000000004653522F4641523ABB
:101E30000A0000002043465352203D202025303820
:101E4000580A00002048465352203D2020253038B3
:101E5000580A00002044465352203D2020253038A7
:101E6000580A00002041465352203D20202530389A
:101E7000580A0000204D4D464152203D2025303863
:101E8000580A00002042464152203D20202530388B
:101E9000580A00004D6973630A000000204C522F5D
:101EA0004558435F52455455524E3D2025303858D1
:101EB0000A0000005B486172644661756C745D0ADB
:101EC000000000005B4275734661756C745D0A002A
:101ED0005B55736167654661756C745D0A0000004F
:101EE00000000000000000000102030406070809CA
:101EF000232D302B2000686C4C00656667454647F3
:101F00000030313233343536373839414243444575
:101F100046003031323334353637383961626364E4
:031F2000656600F3
:101F24007856341280000020000000000024F400E1
:101F34001400002000000000000000000000000069
:101F4400000000000000000000000000000000008D
:101F5400000000000000000000000000000000007D
:101F6400000000000000000000000000000000006D
:101F7400000000000000000000000000000000005D
:101F8400000000000000000000000000000000004D
:081F94000000000032547698B1
:040000050800019559
:00000001FF
