:020000040800F2
:1000000000000120C5020008CB020008CF02000852
:1000100041030008450300088D03000800000000AC
:10002000000000000000000000000000D5030008F0
:10003000D903000800000000DD0300088D0C000853
:10004000F1030008F1030008F1030008F1030008C0
:10005000F1030008F103000825070008F103000878
:10006000F1030008F1030008F1030008F1030008A0
:10007000F1030008F1030008F1030008F103000890
:10008000F1030008F1030008F1030008000000007C
:10009000000000000000000000000000F103000864
:1000A000F1030008F1030008F1030008F103000860
:1000B000F1030008F1030008F1030008F103000850
:1000C000F1030008F1030008F1030008F103000840
:1000D000F1030008F1030008F1030008000000002C
:1000E000F1030008F1030008F1030008000000001C
:1000F000000000000000000000000000F103000804
:1001000000000000F1030008F1030008F1030008FB
:1001100000000000000000000000000000000000DF
:10012000F1030008F1030008F1030008F1030008DF
:10013000F1030008000000000000000000000000C3
:10014000000000000000000000000000F1030008B3
:10015000F1030008F1030008F1030008F1030008AF
:10016000F1030008F1030008000000000000000097
:10017000000000000000000000000000000000007F
:1001800000000000F1030008000000000000000073
:10019000F103000800B583B000F0BAF9384B394AD2
:1001A0001360394A1360394900E02146384B9942BF
:1001B0000BD20A684B6801F10C0488689842F4D9A4
:1001C0001168196004330432F8E72E4B1A68314B7A
:1001D0009A4200D0FEE72C4B1A682F4B9A42F9D175
:1001E000274B2E4A13602E4A13602E4B05E0002049
:1001F000106004329342FAD80B462B4A934204D241
:10020000194651F8082B5B68F4E7244B1B6813B9B7
:10021000234B1B6803B1FEE700F086F9694601A88D
:1002200000F022F9214C224BE41AA4100025AC4224
:1002300014DC204C204BE41AA4100025AC4213DC43
:100240000099019800F05CFD05461C4C1C4BE41A1B
:10025000A410002C0EDC284600F0E2F8144B53F8F2
:10026000253098470135E2E7134B53F8253098477E
:100270000135E3E7013C124B53F824309847E8E797
:10028000BABADECA0000002074000020F40300089F
:100290000C04000878563412325476987800002006
:1002A0001C0100200C0400081C0400081C040008A9
:1002B0001C0400081C0400081C0400081C0400089E
:1002C0001C04000808B5FFF765FF00BEFEE71EF03E
:1002D000040F0CBFEFF30880EFF309807146414A29
:1002E00010472DE9F04182B004468846124B5E6B00
:1002F0009F6B9D6A1B6B13F0020F03D00E4BDB6AE2
:10030000002B0CDB0D4800F0B7F8CDF800803B4621
:1003100032462946204600F00BF900BEFEE74BF6B8
:10032000AB6100F07FF90028ECD0034B4FF00042A6
:10033000DA6202B0BDE8F08100ED00E05417000879
:1003400000BEFEE71EF0040F0CBFEFF30880EFF3D2
:1003500009807146244A10472DE9F04182B00446D5
:100360008846084B5E6B9F6B9D6A074800F084F8D7
:10037000CDF800803B4632462946204600F0D8F8AA
:1003800000BEFEE700ED00E0641700081EF0040F59
:100390000CBFEFF30880EFF309807146134A104752
:1003A0002DE9F04182B004468846084B5E6B9F6B96
:1003B0009D6A074800F060F8CDF800803B46324661
:1003C0002946204600F0B4F800BEFEE700ED00E04C
:1003D0007017000800BEFEE700BEFEE700BEFEE7A5
:1003E00070470000E302000859030008A103000859
:0403F00000BEFEE766
:1003F400ACBA00080000002078000020ACBA000865
:1004040000000010000000107800002020010020EF
:080414000000001000000010C0
:10042000FEE7000008B503460C4A12685AB10B4AB1
:100430001068033323F003030344094A934206D8A8
:10044000064A136008BD054A06491160EFE700F04F
:100450007DFC0C2303604FF0FF30F3E77C000020AD
:1004600000FC00202001002001230360014B0B60F1
:10047000704700BF040000200FB400B583B004AB88
:1004800053F8042B01938021064800F091FC0028CA
:1004900003DD0146034800F037F803B05DF804EBD4
:1004A00004B07047840000202DE9F04385B0044675
:1004B0000F4643560BB10E461EE004252846214642
:1004C000ABBE0446384605B0BDE8F08314F9011B05
:1004D00004AA1A4402F8101C0133AB42F6D304AA52
:1004E0001344002203F8102C4FF00408E94640465C
:1004F0004946ABBE8046761B002EE3D03546102E13
:1005000028BF10250023E8E708B5FFF7CDFF08BD99
:1005100008B500F097F8024A024B9A6008BD00BF88
:100520000000000800ED00E008B500F0ABF808BDE1
:10053000F8B504460D4617461E462748FFF79CFFB0
:1005400021682648FFF798FF61682548FFF794FF68
:10055000A1682448FFF790FFE1682348FFF78CFF6C
:1005600021692248FFF788FF61692148FFF784FF6E
:10057000A1692048FFF780FFE1691F48FFF77CFF72
:100580001E48FFF779FF29461D48FFF775FF1D4CF0
:10059000E16A1D48FFF770FF216B1C48FFF76CFFF5
:1005A000E16B1B48FFF768FF15F0800F0AD115F4C7
:1005B000004F0CD11748FFF75FFF06991648FFF769
:1005C0005BFFF8BD39461548FFF756FFEFE73146A8
:1005D0001348FFF751FFEDE73816000848160008EA
:1005E00058160008681600087816000888160008D3
:1005F00098160008A8160008B8160008C8160008C3
:10060000D416000800ED00E0E4160008F416000817
:1006100004170008341700083C17000814170008D6
:100620002417000883691A888A4201D00020704785
:100630000268033A012A03D802338361012070471C
:10064000002070470C4B1A6842F001021A6000212A
:1006500099601A6822F0847222F480321A60074A84
:100660005A601A6822F480221A60D960044B4FF055
:1006700000629A60704700BF0038024010300024CA
:1006800000ED00E0224B9B6803F00C03042B14D018
:10069000082B16D01BB11F4B1F4A1A6002E01D4BDE
:1006A0001D4A1A601A4B9B68C3F303131B4AD15CA3
:1006B000184A1368CB4013607047164B184A1A60EB
:1006C000F0E7134B5A685B6803F03F0312F4800FA6
:1006D00013D0134AB2FBF3F20D4B5B68C3F38813DC
:1006E00003FB02F30A4A5268C2F30142013252008C
:1006F000B3FBF2F3074A1360D4E7074AB2FBF3F205
:10070000034B5B68C3F3881303FB02F3EAE700BF04
:10071000003802400C0000200024F400801700087C
:1007200040787D0108B5054B1B682BB19847044AFA
:10073000536943F00103536108BD00BF0401002069
:10074000003C0140022800F2D9800F2900F2D68037
:10075000032A00F2D38010B4032A08D8DFE802F09D
:1007600002396B9D012814D018B1022821D010BC89
:100770007047634B18684900012202FA01F420EA2D
:1007800004001860186811448A4020EA02021A60C6
:10079000EDE75C4B18684900012202FA01F420EAF7
:1007A00004001860186811448A4020EA02021A60A6
:1007B000DDE7554B18684900012202FA01F420EAEE
:1007C00004001860186811448A4020EA02021A6086
:1007D000CDE7012820D080B10228C8D14A4B186843
:1007E0004900012202FA01F42043186018681144FC
:1007F0008A4020EA02021A60B9E7414B18684900B2
:10080000012202FA01F420431860186811448A405A
:1008100020EA02021A60AAE73A4B1868490001224E
:1008200002FA01F420431860186811448A4020EA53
:1008300002021A609BE7012820D080B1022896D1DD
:10084000314B18684900012202FA01F420EA040041
:100850001860186811448A4002431A6087E7284BE1
:1008600018684900012202FA01F420EA0400186025
:10087000186811448A4002431A6078E7214B1868CF
:100880004900012202FA01F420EA04001860186805
:1008900011448A4002431A6069E7012820D088B1D8
:1008A00002287FF464AF184B18684900012202FA4D
:1008B00001F4204318601868114402FA01F1014361
:1008C000196054E70E4B18684900012202FA01F43E
:1008D00020431860186811448A4002431A6046E7B2
:1008E000084B18684900012202FA01F420431860FD
:1008F000186811448A4002431A6038E7704700BF05
:10090000000002400004024000080240022803D810
:100910000F2901D8012A00D9704712B1012A21D02C
:10092000704701280CD010B1022812D070471C4823
:100930004368012202FA01F123EA01034360704790
:1009400018484368012202FA01F123EA01034360D7
:10095000704715484368012202FA01F123EA0103B6
:100960004360704701280BD010B1022810D07047A7
:100970000B484368012202FA01F10B4343607047C0
:1009800008484368012202FA01F10B4343607047B3
:1009900005484368012202FA01F10B434360BBE7BB
:1009A000000002400004024000080240022800F259
:1009B000D9800F2900F2D680032A00F2D38010B428
:1009C000032A08D8DFE802F002396B9D012814D011
:1009D00018B1022821D010BC7047634B98684900B9
:1009E000012202FA01F420EA040098609868114498
:1009F0008A4020EA02029A60EDE75C4B9868490061
:100A0000012202FA01F420EA040098609868114477
:100A10008A4020EA02029A60DDE7554B9868490057
:100A2000012202FA01F420EA040098609868114457
:100A30008A4020EA02029A60CDE7012820D080B1E6
:100A40000228C8D14A4B98684900012202FA01F4F1
:100A500020439860986811448A4020EA02029A6014
:100A6000B9E7414B98684900012202FA01F420439A
:100A70009860986811448A4020EA02029A60AAE7C6
:100A80003A4B98684900012202FA01F42043986029
:100A9000986811448A4020EA02029A609BE7012884
:100AA00020D080B1022896D1314B986849000122AC
:100AB00002FA01F420EA04009860986811448A4020
:100AC00002439A6087E7284B98684900012202FA9E
:100AD00001F420EA04009860986811448A400243B7
:100AE0009A6078E7214B98684900012202FA01F4E4
:100AF00020EA04009860986811448A4002439A6092
:100B000069E7012820D088B102287FF464AF184B30
:100B100098684900012202FA01F42043986098681D
:100B2000114402FA01F10143996054E70E4B9868B1
:100B30004900012202FA01F42043986098681144A8
:100B40008A4002439A6046E7084B986849000122B0
:100B500002FA01F420439860986811448A400243E5
:100B60009A6038E7704700BF00000240000402406E
:100B70000008024002280DD8012806D010B1022832
:100B800006D07047044B59617047044B5961704758
:100B9000034B5961704700BF00000240000402404F
:100BA00000080240094A136843F001031360084B30
:100BB0001A6822F001021A601A6822F002021A6012
:100BC0001A6842F080021A60704700BF0038024085
:100BD00008380240032828D81F2926D8032824D8FB
:100BE000DFE800F0020A141C10480368012202FA30
:100BF00001F1194301607047072916D10C480368B9
:100C0000012202FA01F119430160704709480368A3
:100C1000012202FA01F11943016070470648036896
:100C2000012202FA01F11943016070473038024095
:100C3000343802404038024044380240064B1A68BB
:100C400022F001021A601A6822F002021A601A6881
:100C500022F004021A60704710E000E0084B1860B0
:100C6000043B1A6842F001021A60064A1160064A03
:100C7000012111701A6842F002021A60704700BF29
:100C800014E000E0080100200C01002008B50C4B26
:100C90001B786BB90B4B1A6822F001021A601A68B4
:100CA00022F002021A600023074A13600432136024
:100CB000064B1B6803B19847024B1B6808BD00BF79
:100CC0000C01002010E000E014E000E0080100202A
:100CD00010B5094C2388094AD15C0020FFF74AFF70
:100CE000238801339BB223804AF2E622934200D04C
:100CF00010BD00222280FBE70E01002090170008A3
:100D000010B5FFF74FFF00210846FFF763FFFFF71D
:100D100095FF002410E0012221460020FFF712FD7C
:100D2000002221461046FFF7F1FD00222146104621
:100D3000FFF73CFE0134E4B2072CECD902497D20D8
:100D4000FFF78CFFFEE700BFD10C0008014B1868CD
:100D5000704700BF1000002030B5141E05469BB040
:100D6000184605DA8B232B604FF0FF301BB030BDE7
:100D70004FF40273ADF80C3014BF04F1FF33234677
:100D8000029305934FF6FF7300910491ADF80E3076
:100D900002461E9B6946284600F072F8431CBCBF01
:100DA0008B232B60002CE1D0009B00221A70DDE722
:100DB00007B5009313460A46014603480068FFF74B
:100DC000CBFF03B05DF804FB100000202DE9F047D5
:100DD0008E689E4282460C469046994637D88A894C
:100DE00012F4906F31D0256809696F1A6569022382
:100DF00005EB450595FBF3F509F101033B449D42E5
:100E000038BF1D46530530D5294600F07BFB06460A
:100E100050B90C23CAF80030A38943F04003A381E2
:100E20004FF0FF30BDE8F0873A46216900F0F8FA4C
:100E3000A38923F4906343F08003A3812661656155
:100E40003E44ED1B2660A5604E464E4500D94E46F9
:100E500032464146206800F0EEFAA3689B1BA3606F
:100E600023681E4426600020DCE72A4600F0A4FB2D
:100E700006460028E2D12169504600F0F5FAC8E79D
:100E80002DE9F04F9DB0804603938B891D060C46DB
:100E900016460FD50B696BB9402100F033FB20607B
:100EA000206128B90C23C8F800304FF0FF30C7E0AC
:100EB000402363610023099320238DF829303023D8
:100EC0008DF82A304FF0010B37463D4615F8013BAF
:100ED0000BB1252B3ED1B7EB060A0BD05346324659
:100EE00021464046FFF772FF013000F0A480099BC5
:100EF000534409933B78002B00F09D8000234FF072
:100F0000FF32CDE90523049307938DF853301A93EC
:100F10002F46052217F8011B4F4800F031FA049BB9
:100F2000D0B9D90644BF20228DF853201A0744BFF8
:100F30002B228DF853202A782A2A15D0079A2F467B
:100F400000200A25394611F8013B303B092B4DD9C9
:100F5000B8B10FE02F46B8E73F4A801A0BFA00F00D
:100F6000184304903D46D3E7039A111D126803917C
:100F7000002A01DB079204E0524243F00203079289
:100F800004933B782E2B0CD17B782A2B33D1039BF7
:100F90001A1D1B680392002BB8BF4FF0FF330237B6
:100FA00005932E4D39780322284600F0E9F938B12F
:100FB0004023401B03FA00F0049B034301370493D2
:100FC000397827488DF8281006227E1C00F0D8F9C1
:100FD000002838D0234B13BB039B073323F00703B0
:100FE00008330393099B4B4409936DE705FB0232D9
:100FF00001200F46A6E700230137059319460A256D
:10100000384610F8012B303A092A03D9002BC8D0F2
:101010000591C6E705FB012101230746F0E703AB75
:1010200000932246104B04A94046AFF30080B0F174
:10103000FF3F8146D6D1A3895B063FF536AF0998BD
:101040001DB0BDE8F08F03AB00932246064B04A908
:10105000404600F081F8EAE777BA00087DBA000858
:1010600081BA000800000000CD0D00082DE9F0470E
:1010700091461F468A680B69DDF820809342B8BF0D
:101080001346C9F8003091F8432006460C4612B1C9
:101090000133C9F800302368990642BFD9F80030FF
:1010A0000233C9F80030256815F0060507D104F1B0
:1010B000190AE368D9F800209B1AAB4228DC94F89F
:1010C00043302268003318BF012392062DD404F167
:1010D000430239463046C047013020D02368E568D6
:1010E000D9F8002003F00603042B08BFAD1AA3684B
:1010F00022690CBF25EAE57500259342C4BF9B1AFF
:10110000ED184FF000091A344D451AD1002008E0BF
:101110000123524639463046C047013003D14FF0D3
:10112000FF30BDE8F0870135C3E7E1185A1C3020D5
:1011300081F84300224494F8451082F843100233AA
:10114000C5E70123224639463046C0470130E6D084
:1011500009F10109D8E700002DE9F04301F1430C42
:101160000C46097E85B06E291746064698460C9AAD
:1011700000F0B38022D8632936D00AD8002900F0C5
:10118000B980582900F0838004F1420584F84210A8
:1011900032E0642901D06929F6D120681368050678
:1011A00003F104012AD51B681160002B03DA2D22FC
:1011B0005B4284F843206F480A2239E0732900F02B
:1011C0009D8008D86F2920D07029DDD1236843F095
:1011D0002003236003E0752917D07829D4D1782320
:1011E00084F84530644855E01368191D1B68116088
:1011F00004F1420584F8423001238CE01B68116041
:1012000010F0400F18BF1BB2CFE713682568181DF8
:101210001060280601D51B6802E06806FBD51B8814
:1012200054486F2914BF0A220822002184F8431071
:101230006568A560002DC0F29580216821F0040149
:101240002160002B3DD1002D40F08E806546082A9C
:101250000BD12368DB0708D5236962689A42DEBF99
:10126000302305F8013C05F1FF35ACEB05032361A4
:10127000CDF800803B4603AA21463046FFF7F6FE34
:1012800001304DD14FF0FF3005B0BDE8F083394853
:1012900084F84510136821681D1D1B6815600A0637
:1012A0000BD5CA0744BF41F0200121601BB9226859
:1012B00022F0200222601022B7E74D0648BF9BB201
:1012C000EFE76546B3FBF2F102FB1133C35C05F8AF
:1012D000013D0B460029F5D1B9E71368256861691E
:1012E000181D106028061B6801D5196002E06A0607
:1012F000FBD51980002323616546B9E71368191DE2
:1013000011601D6862680021284600F039F808B1B4
:10131000401B606063682361002384F84330A7E7C3
:1013200023692A4639463046C0470130AAD023688F
:101330009B0713D4E068039B9842B8BF1846A3E705
:1013400001234A4639463046C04701309AD001351C
:10135000E368039A9B1AAB42F2DCEBE7002504F149
:101360001909F5E7002BACD1037884F8423004F179
:1013700042056CE788BA000899BA0008000000002E
:1013800001F0FF01102A2BDB10F0070F08D010F836
:10139000013B013A8B422DD010F0070F42B3F6D13A
:1013A000F0B441EA012141EA014122F007047FF053
:1013B00000070023F0E80256083C85EA010586EAAA
:1013C000010685FA47F5A3FA87F586FA47F6A5FAE6
:1013D00087F68EB9EED1F0BC01F0FF0102F00702F2
:1013E00032B110F8013B013A83EA010313B1F8D19D
:1013F0000020704701387047002D06BF354603387E
:10140000073815F0010F07D1013015F4807F02BFB6
:10141000013015F4C03F0130F0BC0138704700BF07
:1014200010B5431E0A44914200D110BD11F8014B82
:1014300003F8014FF7E7884210B501EB020307D824
:10144000421E99420AD011F8014B02F8014FF8E709
:101450008342F5D98118D21AD34200D110BD13F8B6
:10146000014D01F8014DF7E738B50546002945D093
:1014700051F8043C0C1F002BB8BFE41800F0D2F860
:101480001F4A1368104633B9636014602846BDE8EC
:10149000384000F0C8B8A3420CD9216862189342C2
:1014A00004BF1A685B68636004BF5218226004605E
:1014B000ECE713465A680AB1A242FAD919685818DB
:1014C000A0420BD120680144581882421960DDD136
:1014D000106852685A6001441960D7E702D90C239A
:1014E0002B60D3E7206821188A4204BF1168526834
:1014F000626004BF091821605C60C7E738BD00BFA7
:101500001001002070B5CD1C25F0030508350C2D09
:1015100038BF0C25002D064601DBA94203D90C2358
:101520003360002070BD00F07DF8214A1468214628
:1015300091B9204C23681BB9304600F063F8206055
:101540002946304600F05EF8431C24D10C2333605A
:10155000304600F068F8E4E70B685B1B18D40B2BEF
:101560000FD90B60CD50CC18304600F05CF804F178
:101570000B00231D20F00700C31AD3D05A42E250BB
:10158000D0E78C424B6816BF636013600C46EBE7F4
:101590000C464968CCE7C41C24F00304A04205D0E3
:1015A000211A304600F02EF80130CFD02560DBE75D
:1015B0001001002014010020F8B5074614460E461D
:1015C00021B91146BDE8F840FFF79CBF22B9FFF7EB
:1015D0004BFF25462846F8BD00F026F8A0420FD262
:1015E00021463846FFF78EFF05460028F2D03146E7
:1015F0002246FFF715FF31463846FFF735FFE9E78A
:101600003546E7E738B5064C002305460846236013
:10161000FEF708FF431C02D1236803B12B6038BDDD
:10162000180100207047704751F8043C181F002B28
:10163000BCBF0B58C0187047537461636B2066724F
:10164000616D653A0A000000205230203D202025BF
:101650003038580A00000000205231203D2020255B
:101660003038580A00000000205232203D2020254A
:101670003038580A00000000205233203D20202539
:101680003038580A0000000020523132203D202519
:101690003038580A00000000204C52203D20202500
:1016A0003038580A00000000205043203D202025FB
:1016B0003038580A0000000020505352203D2025A9
:1016C0003038580A000000004653522F4641523A23
:1016D0000A0000002043465352203D202025303888
:1016E000580A00002048465352203D20202530381B
:1016F000580A00002044465352203D20202530380F
:10170000580A00002041465352203D202025303801
:10171000580A0000204D4D464152203D20253038CA
:10172000580A00002042464152203D2020253038F2
:10173000580A00004D6973630A000000204C522FC4
:101740004558435F52455455524E3D202530385838
:101750000A0000005B486172644661756C745D0A42
:10176000000000005B4275734661756C745D0A0091
:101770005B55736167654661756C745D0A000000B6
:101780000000000000000000010203040607080931
:10179000858680807B7B7D7A80838581888F888029
:1017A00073808175746D69706A616863616965676A
:1017B0006B6B6664605B656A696A6B696866716FAA
:1017C0006E6F726F676B6F675E62696E6E7774794A
:1017D0008382848D8E8E8B8E8E9298948E898E8A43
:1017E0008D8D81878F8A8B8E959497A4A3A8ADAC9D
:1017F000A7A0A5ACADA9A5A39C9596908683848748
:1018000084818287847F827B7A7B7E7B71757C7CFE
:101810007A7E7F7D6F6A6B68625954575F60606142
:10182000666A6B6B716A6866626366666B6E6C642F
:101830006A73676969696A6D6873797C8788908C57
:101840008B8A847A87929291969A919893918F8FAE
:101850008F94958E9293928B8B9698939998909162
:1018600094999D9FA09C9B94959289858184858362
:1018700085837F7E83847D807D797D7D7B787C7C84
:10188000736E70726C68695F5857595C605E6970FE
:10189000767A7A796A686A6E69686D67646C707264
:1018A00074767670757373707172777A7A807E7BD6
:1018B0007A84858E939496959B9D9A9D958D8E8D19
:1018C00092909291939299A1A0A1A2A0A0A09E9C77
:1018D0009B9C999DA29E9C98908886817F807C820B
:1018E0007E7B7D7B7C7976777B7C757677726E6C80
:1018F0006C6F746F6B686B66615F5955585C5959B2
:10190000575D5E666F6F7472746F6C6F6E706C6D26
:101910006F6F73797D7A797A807F7C7D7E7F8A8F05
:10192000939797949394939495938E8B8C90919690
:10193000989EA0A4A6A59F9D9C979B9B9E9FA09CC4
:10194000979595949793918B8988827E767372741C
:101950006F6F6C6A6D7178777C7A7775727473705B
:101960006B6964605E5D67666364656A65625E623A
:1019700064626B6A6D70727775777674716E707071
:1019800074787B7E7F85888687868788838C8F9016
:1019900094999A9AA1A1A5A2A1A09C9B9796909197
:1019A0008C89888786868F92979A9A999797959728
:1019B00096918F8D8783858783837E7A7B787474F5
:1019C000767475737271716F72746E6D6A6A6A681B
:1019D00067646A6765686B6D6D6B6664666763658F
:1019E00065676C6C707172757978767C7D7A7777C3
:1019F000777775747C7F7E7E848A90919296959499
:101A0000939695969797959296949897989B9C9B6A
:101A1000989895979C9C99989599999898928F8F5A
:101A20008C8988898A89888384837E7B78747270A4
:101A30006D6E69696E6F727477797D797371716E8D
:101A4000645F5D585754525254585D666C6F7172A2
:101A5000777B7D7A79807D7976757676787A7A7CEF
:101A600080818282868B93939395989B9A98969780
:101A7000969391909295949695989A999894939319
:101A8000969B9E9B9A9D9B9D9B97999C98918A86DD
:101A9000877F736F6C6B6B686A71737A83878C8FC7
:101AA0008E87857F7974706A615C5B59535757588C
:101AB0005D5F646C6D6C737773727574726C696B57
:101AC0006D6862686A6B6A6B76767A7F80898B8ACA
:101AD0008C918F929F9A979C9DA2A4A29F9993927A
:101AE0008E8D9089818895989497A2B1AEA5AEB05D
:101AF000A69A8C88938D7F81838B9B8D828885832A
:101B00007671746D6F756F738081827B7585867752
:101B10006B66676869625E6265646964636D736C55
:101B200074797D7C79746461666758525A6E666612
:101B30006C746A9D6777B77D818998806DAA931CC4
:101B4000797E8E855D8195A97B998F7C6DA7B898EC
:101B500082BFF2B586969A8B83A2B15B8CC3A083B9
:101B60009175717CAC9A73BEB365758C656988CFCD
:101B7000A97DB5BD74909B6A3D1902005093642AFB
:101B80007FD5D3AE7250B0CD5E1A778D22000D4551
:101B9000CECE5A4D79A1764470998C8D3A27A19971
:101BA0005D5D309ABB4DA5EA7A021596E0887B9080
:101BB000719CADB5CF8B7E879B812892EEFEE17440
:101BC0000551EDBE4156BDBA54569ED1D985A8C621
:101BD000AA89684B4A94C5750E62D19257649E9D3E
:101BE00053755D7DBE908F58354C76BE50678D69BC
:101BF0007587B646284E472C769C67909A74363285
:101C000065938C6777664653686260447DA295A0B1
:101C10008390838E605A6668ADA189BEC17487B512
:101C2000A46E6B906356A6857F92A5DE9191B7C195
:101C3000DB8652A5AF8E9E916E8FC469526A8FACBF
:101C4000997D6CB4998B7B786A4BA8A86080B28C24
:101C50006A68433C74A289345C78A4C96D568D8946
:101C6000456A8B713E53634E7484696874856E5205
:101C70009D989197899B73465766636DA5CA7C466C
:101C80009D9E797A677F786476AC8BB2DAAF957077
:101C900079744FADDE797D8A927469B184478D97EE
:101CA0009AB48B9F9A5C747B6B5869B6796B8C9AEB
:101CB000B2A97767654E734866A9C6CB8E56627E19
:101CC0006B647BA28E707171585B576264719994DA
:101CD00082B7E3797FA265393E8D8C719A705D7908
:101CE00063695052804465BDC7BD9A7877615C7E58
:101CF0006DB5A08193756E6D7C9269258E92AABF99
:101D0000769A979F88606550689E9291998F8172AC
:101D1000868B61728B8CA78D7B917762568FAD68B5
:101D20009EABA6906C714A4278815C717A9B938BD2
:101D3000B48F594D678C7E757E8E9A8D7F696C71DC
:101D4000726A708A939F7D8A8755454F6C71B5C8BA
:101D50008D7CA1876E7467726B8BA26080B58A8C54
:101D60008F9E7347786E649C9B9D926864567473D3
:101D700088B18BA3B68A5B6091906A6B6967A08615
:101D8000758B878072635366889E9AA47F8795853A
:101D90007554778F82719083798B73523E83AE86B0
:101DA0009CCED28F80A26C5743546A53808D677D3E
:101DB0009BAAB3837E63517B7B9E815E8471647B2F
:101DC000879999897A637D857F7F6A7772828D781A
:101DD000949380908772546687717C8CA09389ACB1
:101DE0008E738773797B6A9A93857D5F64536DA93F
:101DF0009491857CA679687876745F858F6FA3B59A
:101E00008576757356608485818F9D90665B847539
:101E10006777989372A59080876B6B60808A7AB29F
:101E2000B59CB2675E7354564A7D8A95B39B8D9775
:101E3000876452517070869EA6AD7B808A68606709
:101E40007B8AAFAA8D766766576B5459718AA3B2A5
:101E5000AF96886B5A527A789AAF8D948583746B5B
:101E6000534573927FAEB8958E697E6A6A7E7DA176
:101E70007E8596858467806C547E6977C4AB98A212
:101E80008C7640574D68A0A2A684746C717C626009
:101E9000737BA29EA098848C68636C7994777E840F
:101EA0007B7F667E746C8181ABA8A8AE6F715D4E3E
:101EB0006D6C968A90AB787078968C58736D94A8F8
:101EC000769F7A7F8E54745679845CB09B816F665E
:101ED0007A49889C899B81AA7F65845784787AA9EE
:101EE000688B9583836E8C64536A749B8F9FC38FBA
:101EF00082736F735A91836C9D8380798F96556B33
:101F0000899271749A8F706280765E929A7C828ECA
:101F10009E6C748B665F8B996071888A8380B693A0
:101F20005D91885271837E6A68967180AF9E8D7DC7
:101F300086677E847A977597816890768466757DCA
:101F40005E7467797D959A7CB6A886A7B9A15E670D
:101F50005C474458614B525D7B8CB3AF99B2C0A1D2
:101F600081A299677376674563726C7970858290F8
:101F70009193A1B8997F90694B48566E63598EA78B
:101F8000AFBEA69C7D607569858676846C7F8584EE
:101F90008E72747F5A6680898A657E9395B4A8A4F0
:101FA00076536B566D7A6E9A948C8D83907A808579
:101FB0006D8176768267777873897790A384928330
:101FC0007A6C6B9084808E8B8A75637E6F73666685
:101FD0009A8E8D898B7E697B757D7F8B958E94889B
:101FE0008D787662717A63706C716C939D979DABFE
:101FF000AA827C736A606C79899A877F827D6F7E02
:102000008077747595838B8B78827679768D8674DC
:102010007A7A6F738F8C918A9B836E73607869690B
:102020007C9492747E887B72898986768FA18A9649
:102030008694816B72807D5D6E725E5884A3978CEE
:10204000A3B78B8271706C556E859E828196867661
:102050007A8B7B656A807075837A887E8A8E959389
:1020600075776F6C748F917F7E8A848687727D7797
:10207000726B889B847B7F877C7A85847C7C7F9550
:102080008F7F8985876F799872615E6D7165888FA2
:10209000818B909EA28687727C6D5C978A7F6B7C19
:1020A0008D73878C82776974786E7E7988907C9343
:1020B0009A967B728A847B7E8A80777A8084877BFB
:1020C0007780736B7D917B727B84897B868F8C8A12
:1020D000848A8D817D797C6F677C817168758C8144
:1020E000737E88928A83908673717D88737A898BD8
:1020F0007E708493857D878B806C7778706A788B0F
:102100008C7E858E8C6E608C8C88869BA58F7D8165
:1021100087827D727A61525C766F5C66637C819D9A
:10212000B8B3A59AA9988579877C5C4C5568667088
:1021300071807D81A5A4A49186897C6F61797A756F
:10214000747F7D72848793837F838D98847D7C7375
:102150006B747A7C78797E79797C8B908C8F868F82
:10216000897D7D86876A6D7476716B777D848589BC
:102170009193919295817774737C6F6F7783767E5C
:1021800086797C838B7980868B8D8A85807F747637
:102190007A7D7A7F8086887F81807C737A81808156
:1021A0007A7C84827D767F817A8280868B8F8E8610
:1021B000838182827C6F71797D75787B7A7C7B8765
:1021C000817F83888C84898A908B7E7A73767375FD
:1021D0007D7C7A7D8783818081817C817F84837D02
:1021E0007E7C7B797D80808685898A818184807BE5
:1021F000787A7D7F7C7B7F818079797575838C8B04
:102200008F8E8991867A7A79737172747D818385D4
:102210008283878A82767E847C828783817B7373C4
:102220007972777C8083878E888782818A847E809A
:10223000807D737A73737B757A7F7D868E8E8D8FAA
:10224000897F817B7879797B827D7E7C7B747A8DB6
:10225000807C8D8581898484858A7982766B7C7E79
:102260007D7A7D7B868F7980938771819293B0652B
:10227000282F5F818CCDCE6D78B185D9B754446A53
:10228000AC7474687563538D7D823F1C5D92977347
:102290008D96847FD2D97F4D64B2B3A9799AA24D2D
:1022A0003E627E5E665C58856569646FC39C8EA2E3
:1022B000C0A87274A3A751585E91AB542E73948238
:1022C0006F77A5A2A9B6B3B7AD7C706E5E583846DD
:1022D00049496C6698B7928695A6AF905A4A6B901A
:1022E000849EB4AE7F6669755978A9B6CB9ABBB7A0
:1022F0008C4D404A5B52272A39556F7A6D8F9390E7
:10230000907E8176463E6F8E8DAC9DC0C9AEA0A7F3
:10231000BFC5E5C8C0A1AF9E99703D5E809B716648
:102320007F7D777979745938392D2A361E2D2028EA
:10233000415157617290B5C7C8907884C3CCAAB593
:10234000B9935B577AACD3C6B38A7B948784A5D6FE
:10235000C8C1A283949684766C6778635F4F3252CB
:10236000846F413837373B515B68584C6374837DC9
:102370007E8D9DAFA58D7F5E5C75696A67696F54C0
:102380005E7792B2C6CABEBF9FB2AE717190988E90
:10239000917375694A3E47555C767171769EBEBAF7
:1023A000CBD0D0CFBCA69E9EAAAFB0B5B9A78E8524
:1023B0008D9C96885F42383F596C706F717D7B852C
:1023C00068466C6C645C5747371D152C3628293CD1
:1023D000373853666D888A98A7B0A299A59F9293C3
:1023E000A3A39786909F8C8391928F9BA39293A98E
:1023F000BFC6B8B6BFB3AFABACB8B1999996836F4F
:102400006C775C5B81887E7C7D9983708B8B9EB2C0
:10241000ABB4B3B2A6878173857D55444944393C3A
:10242000455957505B63728A7B807664625C5D4677
:102430002B304F4A3530343B3E3E4964687E9F9F87
:10244000AEA9B4B39BA2ADB5A5A1A2A5A79D9FAE11
:10245000A3ACB299958E9A9C95959FA8ADA591A194
:10246000B0A39DA8A19FB2AB9B97847E71715B5274
:10247000585F7C7B92959D9EA6A09099817F7474F5
:102480006A615E555C5854444D433D3E4259586C18
:10249000676F7D79787B6E605654695953545B5EE3
:1024A000686D7068605C6175778578817C909B8FC2
:1024B00090989D8F8B91A297A39DAEB39CA3A59A54
:1024C0008B96A9A5A4BBB9B5B9C1B9B3AFA7ABA940
:1024D000A0968C8D9194908080827F6E72797A82A2
:1024E0008D897D8685826B6A67615A56553F4A4859
:1024F0004A53596061595657605E5A62585E5D6929
:102500006A6B706F67585752605F686D626463638F
:102510005D626F767583838998999DA1A29CA1A223
:102520009E9C948E908A9397999FA7AB9DA2A8AFEB
:10253000B2B3BBB7B7C3BBB5A4A1A89894878B8728
:1025400084917F819390898B857F97937B79756840
:102550006D75656370695E685A4F615B545D5D645B
:102560006359586063565E615C4E505961625D63A9
:10257000635B656C564D56605960646D64676E6A46
:10258000727C847F898D95939E9D929092948C8F7E
:102590008C9693989FA5ABABBBB8B9B7BEBAAEA9A2
:1025A0009FA5A4A49EA0A29DA49E9B9A96928A9069
:1025B0008E8581908E78858F9487847D767A7674E7
:1025C0006B7070756D5F5959574F5359514A525737
:1025D00059555F6764615C5B6366625E5659565C21
:1025E0005C565F5C5B5D686F7D7F7E8286928B8AC6
:1025F0007E8081868B8D948C96928D8B8E9894980C
:102600009DA4ACABAFACADACABB4B2B2ACA9ABA912
:10261000A9A8A2A3A39D9B9696968A888D9390873E
:10262000807E7C7C8486848A8C838C867B706962C5
:10263000555956554B474A55595C5E585D5B5A6033
:102640005F615D5958585E625A55564F5055545403
:102650005C60606B6E6E7073716E7E8283807D8451
:102660008A8B909B979BA0A1A2A19D9E9E9FA2A4B6
:10267000A29EA49E9EA5A8AAA8ADB2B0AEABACA9DE
:102680009F9795918D918C868D9395929797969122
:102690008A88848078777C76797A777263635E5EE5
:1026A000585451555255605F645C605B5D61605C7D
:1026B000585B5B6163676668696663635E5B5F5D09
:1026C00063696969676C6F727D8283878E90949964
:1026D0009A958F95979A968D8E95999DA6A6A0A06E
:1026E000A5A8A6ACACA7A7A6A9ACB0B0AFA9A6A751
:1026F0009F9994908F8D8D8E8E8887878A8883830B
:102700007D7D7A7B77747B756E7275706B625C59B8
:102710005A5854585D57535A55565E5F5F605F5E16
:10272000616761595B63615E5F5D5D5D61646A6E97
:102730006E6E6F767B80828388898C8E959A939754
:102740009A9F9997999696999EA0A39B9D9DA4A1C7
:102750009FA7A4A8A9AAA8ACACA5A5A09FA1A69C28
:10276000949593908A8E8C83868B857F82848380D8
:10277000807E7C7C737070716A66655D5C5E5C6196
:10278000605F5A5D5D57575256525253535A605EBE
:102790005B5D5D636162656463666C706E696E72D9
:1027A0007275787F83818586898C93908F959899AF
:1027B0009F9F9DA0A5A7A3A7A1A3A8A9A9A7A6A4D9
:1027C000A3A6A8A9ACA8A6A09F9C9A938B8D888845
:1027D000878586827C7B7A7E7979756F7874737051
:1027E00070716A6D6864665E5F5D5E605D615F5CAE
:1027F000595D615C5A5C5C5F5E5D6160646A6E70CD
:102800007174777A7675767777757474797A7A7C5D
:102810007E7E81868687868B8C8E8F9597949A9AFA
:102820009C9D9EA19C9C98989D999690919293971F
:102830008F8F91918E8F908D8C8A8A878B8C8D8BC8
:1028400087837F807E7C74727676766F7074757203
:1028500075787473707571737774716E706C696963
:102860006764666C6B6D6F7375747679807E7B7B45
:102870007C7D7E7D7B7A78777A7B7F7F807E7E7F92
:102880008287878C888D919294909093948C8C8B76
:1028900085888A858583878783868A8E908C8A85BA
:1028A0008A8A8488898A86838585858986837C79D6
:1028B0007E7A77767B84807E7F817D7A7C78757363
:1028C000757874757B7E7E7E7F838280807D7D7748
:1028D00075747576767878787D7A7775767A808073
:1028E0007F8483807E7F807E7B787A787A7D838305
:1028F0008083848883848687888484868783848091
:1029000081807D7B7776787F7D8389888C90959692
:10291000918C8B827C787678727275767A7C8385DE
:1029200082817E7C7C80818384837E7673777D7DCB
:10293000716B7279787E868585848A8C8F86858690
:102940007D706767696E6E777A808A9088899093C8
:10295000908A8E8E847F7F7A6C646E7073707A84B6
:10296000868589908A8E8688887E83817F7B7B831B
:1029700079757A79706E7376868B8F9FA7A1939104
:10298000937E6E62605655596E7C868A8597A4B395
:102990009E9F9A816E70696C747F77767B877C7F4F
:1029A000855DA194664F5A6370ADD1722850AAD24A
:1029B000A5AA9FB2728AB55F3B4E677A5495D6C37B
:1029C0006B00577E362B878483B7D2B1BACCB5DE85
:1029D000FFFDC0EBBC4C231D2E25295991965E2B83
:1029E000083A765F410C012986A06F4A54B0F2C1C3
:1029F0004F48CEFFD5B6FBFFF1DECFEAEEEA7E3FD1
:102A00006B9982373157552113003040060300344B
:102A1000562A1B3E4C251257CDB6ACCBB2E5F6B8C4
:102A2000C4FEDFC7DAE4A86297DDD9D39180EEEA6D
:102A3000763079875324043C522D223A565D664EF7
:102A400076A5714B06276089B9C3BCC9DBC5DBCC51
:102A5000EEDF90A79DCBF3F0B868828D5D369A7D4E
:102A6000304E3F401C3045223F49233B68643C09BF
:102A70000C171F25161719171E3A2F3072C0CDCE0E
:102A8000C1B1E5D8CED0A4B9EBE7DFEAF6FBF7FF9A
:102A9000FFFFFFEFEFF0DFE1CACDE6DDDFB290A58B
:102AA000979C7C3E64787C704566628D7C0E000845
:102AB0000B01030209091C1E2A3517243154360B59
:102AC0004228222310303E4A2714354F51A0A6BB7E
:102AD000C9A5BDB8E7BF85B6CDCBCB9BB1D4EAE6DF
:102AE000D8DFD4D6EBC8A6BABBDE9084B3B5D199F3
:102AF000788481816A668768A0C27FAF97885C31DD
:102B0000602F1D2436284A8556326E584D97817F96
:102B10006E6C76617A514C7E6C5F526D7178BC9DA3
:102B20009EEACCBEB49BC6AF9D886FC1AC98BCCEAC
:102B3000E4A7BFC2A5D4C3A2ACB8DED28CAC9A8F36
:102B4000817D9B6C8954649D61708F74737A6A5621
:102B500021230C082708071E37270C402E24563641
:102B60002455461D292805003A2B1715242E1D70C3
:102B70004D2C937C7C98695F46696E4972817186A1
:102B80008EB3A4C2E587BDD0B5DED8DFE5E2FCF6A2
:102B9000D4E6E3CCDBF2EAE8FDFAFAFFFFFFFEFF42
:102BA000EDE1DBCAB2B5BDB7BEC7D2B4AFBD95CFFC
:102BB000B691C5A9AB866E70533B423C1C28473585
:102BC000325436504D31663B1D2B0A0D05060E0260
:102BD0001B220D2210243B082F21273B23322F3BA1
:102BE0003E3926202020254A3B246D394D87648FAD
:102BF0009B7E6862704B597E56848F89AD98C0B7B2
:102C0000B3EEAECCDFA3D5D0CDB1B1D096A9BEA9DD
:102C1000DACDB9EEC8DCEAC4FBC5C5CEA8C296A31E
:102C2000B2AABABED3DABAD6C5B3E4AAC2D9C7DD4E
:102C3000B0C3A9A4BE7D869182A4998FA683BAA7AA
:102C400082DC937C8362583451403B654D496A4C29
:102C5000606152663B6150315B322C3A2C250C0F7F
:102C6000181337232847164C3937621C412B0C2A7E
:102C70000F2122174237516039553E4F7227577F37
:102C80004B6F696D585A763C5A6058917D819C9A79
:102C9000C0A1C9F7A4C8C68CA59BA2A7BDDAC5ED83
:102CA000F2DCFAEDF1FDE7F6E4E4FACADAEBD9DC9E
:102CB000BFC2B7B8DDBEE0DBBEF2C9CBE9C4D7B056
:102CC00098AE80A89D7FA883A0B07C9E88839369DE
:102CD0009F826FA16E6F745D614442423A624556B5
:102CE0006E4A715868714A522421240917272336E5
:102CF00029363B35582D465026443827342B352D60
:102D0000253A1C28302544314B554168647D7C525E
:102D10006D644F5A546862667A67A19472A2829C6D
:102D2000A88AAF97AABC96BE9986AF869493A5BB96
:102D3000A9D2C5BCE8D5D8E2C7C7A4A49B92B4A6C3
:102D4000BBB8B0E5C0BED19FDFCAB3D49CB9B7A0B1
:102D5000BA94A1AA88BB8C89D39BABB7B0D2B7CBAE
:102D6000BFA7BC8A8FA386898E938477A28F9AA9E6
:102D70007498858695799B7F74844E646A4051402F
:102D8000526A4E71666987607F6C4D531C19211819
:102D9000210B3E3F1A65544B54374834434A2A436B
:102DA0003635412F3E3A313B2D53452D6C576A6FD6
:102DB0006782605F4E3D594B47503A515459735B9F
:102DC0008179688474898488947E85777387697A29
:102DD0008B6E9C9592C3B6D5CEDBE9C0D0B39EAACC
:102DE00094A1ABA2C6B2CFF6CAE7E6C8D8D4CFCD7D
:102DF000DFCEB3C0C0BCBEC0BAAEB1BFABC7D2CAD3
:102E0000DCDADABFC7B993988F93997D86968C9751
:102E1000A59EB0A5979297A09D8A7A917176705CD5
:102E20005A5F604F6C5C63877F718F7A5F6846334F
:102E30002F2B27271C27443F5B5B4C764A40552CA1
:102E40003A493B2E343236384338313F39442B4FE0
:102E5000634F736155685A4B3E3A3B2E423D3E5894
:102E600043706F63A26B718961847E737F74736E2C
:102E7000737B6B79797F9689C1BBA0D9BCA9BE9EB3
:102E8000948A848D849997A0BFC9E0D4E8E4A9CD41
:102E9000BEA0CBB8A5B4B5AFABCAC6A8C8A9B8C6C2
:102EA000ACDCB3CFEAA9D5D2A4BBA39098909F95F0
:102EB000A4A2A4BEA7CDB79ABD93ADAB8A999198B1
:102EC000807E886976775B7F70879D6AA084618F3A
:102ED000674D58382A363A373657606469796E46F6
:102EE000624E26504E2F454A383B584C27513926C2
:102EF0005645594C506D42616339554B253E444609
:102F00004144634C6D7A7576627B6369735E706D64
:102F10006B706C8374667C697D97A6B79BBDB89314
:102F2000B0967C87806F708686789FBBABC6E7C7FC
:102F3000AAC0AB8FA8A18BA2AB9797B8B398B3A642
:102F400088AEB7AEBBBEC6B4B3BDA1A9A17D858B0B
:102F500088949093A1ADC2B7B5BB9D969D908C937C
:102F60008287887C8584786E696B849598959E9914
:102F70007F8071615D4F4341504D4C586D727AA80E
:102F8000866F845B4E6A5344514C4D46665F4F6476
:102F9000483C556B5C5C7D6B677B66606759404164
:102FA000493A3F584C51667C8F75888160797159D8
:102FB0005E645D5D6567676D676267779E9394BCCD
:102FC0009E87A8967B8A7C67697D7B6B92A098B16F
:102FD000C9C5A6BDB586A5AC8996A0928EA4B186BA
:102FE00099A37A92A3B1A4A6C9A5AACBA6A3A884A3
:102FF000867F84877D97959AA8B7BDA0ACB08F9245
:10300000A3887F8A7A7F878E857B81786D8FB49342
:103010009CB793829A82666E5D46485C5A4F706C8C
:1030200069838784706D674B5C684655534B5C546D
:103030005D5546453D3D55665E68696D726E7B6DBA
:1030400055504531424D4248616C5D8E917186818B
:103050006E767D666F706373727A7567706C749A42
:103060009D9CB1959AAE94949A8E76727C787F915D
:103070008B91B7AAB5C2B7B592A8A792A7A28FA302
:10308000A6919FA08B858D8B9CA6A9C6AEB5CEBB05
:10309000C5B0A992768A76738F7D8C9BA1BE94B5BC
:1030A000C67699A7767D85776C80836D787B596924
:1030B00076827771996B6D9A7D767E725C46594EF9
:1030C000436646566B608D5E708B4367735A695DCD
:1030D00071684A7351435D3B3D406E6848907C6720
:1030E0009B957576877146575B45615D55607E9906
:1030F000748E936C84866A5F6C8C8669968D7985F4
:10310000727C708A97789D95739EB6918292917029
:103110007C966F7A8E877FAABA95B7B292939B9C62
:10312000869CB8868BB188847E77797EA97E8AADAD
:103130008FA7B5AEA89EA6906F7E7175846E7B71C9
:1031400090A5869F818590688375769E7A7A97751B
:103150007A87837B7597767FAA86978970824A4F94
:10316000542D6F7088AEA8D7BCD0BB96A634224829
:10317000132F44499085C4DDABD0A98B6D545641C3
:103180005848397E707FAF7999824F7D5C67826C39
:1031900070739A868BB75A6F812350544F7348735C
:1031A0008462A78F676F645D54806058A27776A5AC
:1031B000848E898C8B4C69714F556A7E6198A05FB3
:1031C0009B885B9E8E6D8A6B726D6D98777B898113
:1031D0008797BC9295C6A0B4CFA7978B716571866F
:1031E0007E84818FA381B5AC79AE8D7096858893EE
:1031F0008994889ABF9C85908C61828E4E7FA17C39
:1032000088996D79846A6C757B776D789A7691BDB3
:10321000767DA57084B1747C835A6B6F72726C6A10
:10322000686B63777E6589916D958E6E80625D7245
:1032300065677560748E5E829155778B5076896074
:103240008372828978AF8D6C8D755E6D80726EAC85
:10325000908DB87F808E6773786A846A709E867E50
:10326000B4A379AF8A79B287858F688377709169C3
:1032700068807561769B8399C09DA9B68B867866B8
:1032800072707D7460809A787DAF70719B617A896D
:103290006A8073788C709A946A887E6D62817D6C86
:1032A000A08A77A57F63816B63696F736D6D8D9D58
:1032B0007AA5AC78AB8D6CAC8271936B7A856F908C
:1032C0006B5F75715E6A837798A6939FAA847F74FB
:1032D00060635A686C6562958C74B57C7DA9537582
:1032E0008C567A7C658B77899F748786736A7C6B32
:1032F0006C9F7777A27A708C666365606259605EB6
:1033000081767B8E709789649D7C62986465886104
:10331000797F636E736A6C7C7693AC88AEB98DAD41
:10332000986D8A72657F6E6A8B9D91B2B193BD99DB
:1033300072A07B6A85727886819E9C909C938A8A13
:103340009177899C7497A3739096747E7D706C724C
:10335000726E8C868D9C8FA2877B9C817A8C6D711E
:10336000816E7E77767970756472777B86788491CA
:103370007B808362616251575D5A5E7E7E78959351
:103380008E8378786D5F675C536567708384797826
:1033900080747682787981828081848D8674757458
:1033A0006979786C7A828C888998898A977F868AED
:1033B0007C8980858D80948F818D81818D7E8A939B
:1033C0008190948B96999192908D89898C82848238
:1033D00081817F83818483818B8C88898787888A98
:1033E0008384827F8886838681827F757D838482C1
:1033F0008283868B87878383847F807F7D83827CA3
:1034000080858485817E7D7C7D7776767073777804
:1034100079797E79757C797A7A76757878747A7C20
:103420007973747D7C797D7E7A7C7B7D7B787F7CF3
:103430007A7E7B7A7E80817F7F7F80827C767C7DB6
:103440007B7B7C7C7C7D7D7A7E7D78797C7C787EC4
:1034500079767E828483847D79818281827E7C7E7E
:103460007780888B8D84848B8F91918C8F8C878BC8
:103470008E8C888487888B8B8A8B878488898388C5
:1034800088868582878F8F8A88868C8883827C7ADB
:103490008285858589888085868487837C7F7E7EFA
:1034A0007F797E797A858180837F797E818080793A
:1034B00075727271707577727476767F7E7B7E7AA4
:1034C0007C787A7D7270767877777774737A78778C
:1034D0007A7273797976777C817A78807A7978755F
:1034E0007574737675777D7A7D7F7D7E7E7C797845
:1034F0007B7C7B807D7B8185898A888984858584A6
:10350000868A847F86878A8C8A8C8F8E8A8B8A862D
:10351000858B8B88898A8B898D8F8D8F8D83818117
:103520008083807C81848787888D8B888786878647
:1035300084817B7D8584838686868685828382825C
:103540007F7E828285847D7E838185847B7B7C7D7A
:103550007C7A797877767474777371726F73757417
:103560007471747B787878757776777A777A766DF8
:103570006C6F70707272767B807D7A80827F817FC3
:103580007F81787872737A7A7C7F7B7D84827D7983
:103590007C7C787A817D81847C8184868784868125
:1035A0007E888380868684868A8D878485808185CF
:1035B00080858A868E96969090938F898A8A858A4E
:1035C000867E82838486838489898C878488898B9C
:1035D0008B8C8B878687807F827E807E80838389A9
:1035E000847E83817B7E817D7F7E7C7F7F82827EE5
:1035F0007C7B7979787678767574787A7573767459
:103600006F6F6E7372757C7C807C79807E77767745
:1036100076757271716F737976797C7E7F797B7B39
:103620007B7C7A7C7F7B7E7C7979757879757776FF
:10363000787A747A8080808284807E807F7E7E80AB
:1036400080808283888B89898F8A88838488858813
:103650008486888A8C908F939495958C8F8D8B8996
:1036600086858784858781828484828688868A8805
:1036700087898B898584837F7D817E7D8183838615
:10368000848388848183848281818083828483810E
:103690007F7E7E79787D7D7A787D7E7B7D7777777A
:1036A0007773716E6F72757A747E7E7C7D79797AAC
:1036B0006F666D6E707476727478797A7A7C7A79C6
:1036C0007B7A7A7A7A7B7A7D7B7C78797A767B7D55
:1036D0007B7D7F767D827A7E827C808284838184FA
:1036E0007F7E82817D828280868580878B888988A3
:1036F000868788858584848889898C8C90938C8B37
:103700008D888D8782828488858483878785898D4B
:10371000888F8F827E818587828A87838C8380834E
:10372000818683798B7F7B868784857F838C888461
:1037300071878676807B757C7A6F757D79757A80E6
:103740008272737B717176706C6E6778846E7F7E27
:1037500076797D7B69706A6C7775787E767C7C7F04
:10376000876F6D887F7085797D8374766E738071C5
:103770006C8176718084777D7B7484717C8D7E858D
:103780008175817A85857B887A7F87838480839021
:103790008F8F85878E8C8D8B87848E908D8F8F8D6C
:1037A0008E8A8E8E878B8D86808C837C8C89868694
:1037B0008E8D7E8A887A88847B7C7F8480808E8AC6
:1037C0008B96918A82827D777575707D78707D7712
:1037D0006E88938593938179847A6C7F75737A79F7
:1037E000756279796E6E73897D75896D7178668D74
:1037F0007378855D85936E897C60756F71836E6C5F
:103800007A7C7076867F7E9C756C9E88787BA763B9
:103810005A754B43588EC2AFB5A559B299A0C3761D
:103820002543926764526BA97CBBFFFFC02C1046F6
:1038300073422B0A1E6BC5D1AEC7ABD2CDFFC39A64
:10384000CF943C0009323164B5D1D8631F6CD4FFEA
:10385000CF7C562556897D58033EB2955E3F60D495
:10386000922A4693B46AB0D9B5FFEF48138D987782
:1038700033225F76650D8BF9A86F67C9E3988D9049
:103880005D313471C6AE6465463C9E87728E6D872D
:10389000BEDBC25534A8EC8D28005BC46022234CEB
:1038A0003634549FDD9383ADADA29F772469C7A7BB
:1038B000A798AAC5EDE5A98FC5BB71334F9685BC06
:1038C000813F90C4774F50414F35513225636C662C
:1038D000587C6D5A8E712927364F996B4491D2D2FC
:1038E000D7F4EAB678ACB2B4D2C2D1A36A71827B03
:1038F000ABCDD5B593A77C7D8E524B63644E426BA6
:1039000053536F745C3363683D3B3835684C43A652
:10391000827BBE91614A86B1724A427A7B6FAA8AE3
:103920007D7559858789ACA99BAB8281CBB0ACC82A
:103930007A66878069462677B4849390936B295A78
:103940008694C0E3F2C6BCA8ADC38B85C3D38F8F6A
:1039500080707492C8D89538382B345644386580B6
:103960007EA37B5F74714E373C1C00095C411A25B5
:1039700019395E64718B624A617A937A82A59FD00D
:10398000F0CF95AA816C7480C5DDDC8F9EBBA96FDA
:10399000578BDADCCBD8A1989DB5BBA7C2C0AD854B
:1039A0005C6B636F667C9B7F5E8FBA91705D7B659D
:1039B000729CBDBB8E93996A61575F604F6E4A2CB3
:1039C0003E373B615181A8926A74744E4A406660EA
:1039D00067867436334E3B2B233045737F586A77A6
:1039E0008DAEB4B6A7B3CFA8808B6988AAA7C3C48D
:1039F000A37772A8BB8F9B9A8F97B4D1C3A18799E5
:103A00008E97C1D0E2B7919AA398626281888FAEF7
:103A1000723E445B9D7A7DC6C2957D7D7455655A24
:103A20005E786A8C896049473E243A655F60494305
:103A30005753646360787D7F805B40243E5D5D65A5
:103A40009E8F726D4A65655A639380A8C0A9894F9D
:103A50006F858AA5C7C3BB966E7CA19598A1909AE5
:103A6000C9BF93979CB3C1B9BBD3CCC2A2565D84E6
:103A70008EB7B3C4DDDBC4945E59756A8570757901
:103A80006355627B7B9E88839AA38163401B37507A
:103A90006B74826C4A524848593C46627A9C8993BE
:103AA000622F302A597F77857A5456537168615D49
:103AB0004374805F6E7A697C94A6B9C8BC95797F9F
:103AC00097948A92A2D0DFA58456516076C3DCCB4E
:103AD000D3CFB6ABA8D6C4C2BEACCBB9B0887271D6
:103AE000707E9CA595928C836B86796077809CA76D
:103AF0009B664A4E424A7281809863483A39473AF7
:103B00004645639471484A2E44556A848A8F764F9D
:103B1000413B46414D8F8593846C5F41302F3E6C15
:103B200091A0AF81868691938D9290A0B3A995972D
:103B3000878C8B9EA0ADCDAD847B96B9A5A0CBD54F
:103B4000E7D5A2997D746F95C3B6CCC39687827C66
:103B50007574806786B49996755C74808884A5CDE9
:103B6000985F3F4065584E6F8091775344272B26CE
:103B7000396B797F7C696C7885795F62535E6958AF
:103B80005E40425156616099A76B4D4A657F6778E8
:103B900092CBEEB083695B67717DB3BDCCBE95926D
:103BA00084898790A2A5AAAFB7AB8E9CADACBBCEE3
:103BB000DBD3B17C6F94A88A86A8B6C59978705A71
:103BC000665E768BA0AB8C81868B927866706B7804
:103BD0007E7C5B2C303E434E639B8E563935594D6F
:103BE000415479A1A268483C3E462F527A948459A8
:103BF00054525A675E595C758889866D667D8F76EA
:103C00008AABC9C6957C74A49CA6B5B4D4B67A5DBB
:103C10005F716D527497C3D7D1E1E0DDDABFBD9615
:103C20008FBA938B6144637C958BB1D7B8846475EC
:103C30008B8C7C8DA3B49F68533F595B5A7C90A2B8
:103C40007448404D493B5A5D56587F7E5E32285B32
:103C50005F6365839B7C4E353F62776E617A8267D6
:103C600052364A5F50607B93AE9B92A192817670F0
:103C70007A839DA5AB99768187A9BDC5D8C89E7169
:103C80006082A3A1A9B2C7D5BD9E788E9286A1AD50
:103C9000CFC09E7F839180716B7B92AEA79B80612A
:103CA0006F7B828696A68D5F414D658280736A79AF
:103CB00083583E232C414F576B8A827971715E5035
:103CC00048414B5D6E766E4D2F395D748E968E7ABF
:103CD000503B48697B899A99A9AE9669677A818F2A
:103CE0009AC4C3B09D8F94928D929D9AAFB5B2B293
:103CF000918A909CADC7D2BCA3858383A1B1A9A4AE
:103D0000A6B29D815F546C707EA3AFA89F8E827A0D
:103D1000645A5F6367778381684D4C5563879580EC
:103D2000613E35363E4E6B75767A775E4749434243
:103D30004A5B8A957F745F5F5D565F5F53758585CB
:103D40008071726976799DB19A93796A8298AFB0E1
:103D5000A5ADB4AC9C897E7E798BA3C4C6CEC9A820
:103D60009A8B979D958E989EA7A99B8E8AA1B5BA8E
:103D7000B59D836B5D67778E94929585797B74652D
:103D8000575267849496846D5549484B5454585FF4
:103D900065655E584C4B515F6A747B614A4356724D
:103DA000777674736663605D5A5355657D93ADB7DE
:103DB0009F7C6B7178878A8080869BA19E9CA5B32F
:103DC000AEAEBBBAA98F7A8498ADB6B8AB92A0B2AA
:103DD000AA9B86858A9FC3C7C0B394837577919A3F
:103DE0008B7978868F948D7E6D6B7988907A686EEA
:103DF0006D6C7170725C44443E505D4C41395E970D
:103E0000B1B292624F494A5148443E434E506073AA
:103E10007E756D76859688654847597A8F8E7B705A
:103E20008492998874767495B9C9D9C3967667894E
:103E3000B2B1A77D799DB3CFB895867FA4C1CCCF11
:103E4000B6A591809BB0AD956A6A849FA88A715F80
:103E500084BCCAC28C6251485F727C7C61565C6BC8
:103E60008F8E6D4228597F968E4C3231406E766629
:103E70005A4C5A67626957473B3D6F9AAF96613B10
:103E80004770918F6647416695A5997A5C597E9FE8
:103E9000C0C9AB886B7AA2BCAF8F777898B1B59A5E
:103EA00085869EC8D8D8BA8D72738BA6B2A898831F
:103EB0008FB3C3BA88646485AFC1BA9771627890D2
:103EC000A3997D6758697D867D5D4F567795967A73
:103ED00053434F6673694B3F36446C776E513A419A
:103EE000587E938B6A43384D7280715F514E687C67
:103EF0007F7A5C5D6D88B1AD946F5A687E99A293AC
:103F000090909BC1C0A3856E849BB2C0B9A88E8AD5
:103F1000A0BDCEBB9B827C90A8AD9F878395AEC889
:103F2000C0A88E7E85869394837F6F78938E8368F6
:103F30004F617899A6896E4E516E787C6D5A5653B2
:103F4000637170623A2B4767868D78532F4867708C
:103F50007474765E667A6D6227164F646D829C93E8
:103F60006B76A0ACA78C795E597D889688525F9A53
:103F7000B2C1D5B48681948CA2C5B49C98BACAC487
:103F8000B076507597A3ADA486586CA4BECAC4B8C9
:103F9000ADB4BABBB9883429637F998F94703C4A19
:103FA000698AA0A079696A817F613219374E5F6F93
:103FB0007C7961637C8874624F383750746A461C20
:103FC000476F869C91834B475B6F888985726584B8
:103FD000A7AA7E4F455F80A3BAB29978869EB8C1E2
:103FE000AC8C7998BAB39C735877A2C8E4D1AD88E9
:103FF000717597D3C3A5877992B8C090594F759FB3
:10400000C0B39A81737C93B29F7968505F7A977E30
:104010004035527FA3B28E53272A51767A69524394
:10402000517F8F8D582B243C637E905B3A365781AD
:1040300098916D4C4C718A79503D426EA8B8B691FA
:104040005D4E5683B0BFA2806C89B8CCB485626DDA
:10405000ADBEC7C0968291A6B6CCC1A6928CA7A5CC
:10406000B08C6588B0CECCB795786D8799958C73F8
:10407000667792AAAF92644A5279908973514252FC
:1040800074838B7B6D5750675F4D3E2C487A8488D4
:104090007B5C504A556A634B3C536883877261501E
:1040A0005E718F9683655351648D90877E767C8D8B
:1040B0009F908A787695A8B09CA497848C91999AC1
:1040C000928DA4BAC4B09D999AA7B8B8A893827CDF
:1040D0007D99A6A99F939999A09B846F69768FACCF
:1040E000B0938B7B605E5E6A67545E6D7B847069A3
:1040F0006A6D7A79735B423E3642576E725B616ECF
:10410000787F664A353962869887675D5D5B79940A
:104110008E6C595E6B919C90766A86B1D0BD917E13
:10412000645E7C94A79A8A939CAFBFB7958587A855
:10413000C8BEA279696F869CA58D69677A95B3AC74
:104140008F77718FB4C4A26B42405A90A7A27D545E
:104150005D789B9D7B5552648CA09573504C547335
:104160008F8C6B4945648695856A6B7F9EAC9562A2
:1041700035354D70888772606687A4B29E715C6524
:104180008CA39A764D456288B1B48E67586B8CA12A
:104190009F8A77839AB8BEA57D57566E93A7937C66
:1041A0006D7C9CB1B898797B90A6A5896B525871AB
:1041B00090A2978370748B9B9B815F5E7896A49688
:1041C00075504354779596886B5D697D8C918372A9
:1041D00079868E8F8467594F57717D867E6E727B8C
:1041E0008990888785929B938778615D61778E93AC
:1041F000907976838E9F8F7F6E6A8692979174688E
:10420000657397A1A993746F71848C817B6F788596
:104210008EA396776356657A8794817A7A7D8B8FA1
:10422000979E958A7C777E7D7664606679888A928F
:10423000958D837672767A7F7370767B8985889781
:104240008F93887C796969696772798584788189B7
:104250008D83736F6C737C7D868080807786949C61
:10426000917979746C7169767F7D888B929A9D9C27
:104270008A807B7D86807D7D79797378868B928A32
:104280007C78797E827E797E8284878B8E897D742C
:10429000757575747A7E797C807E84859191897F2D
:1042A0006F6C686D797B77807D858E949C90857826
:1042B00078797A84857C736D7683868B867B7A7A2F
:1042C0007F858886878581868788887F7270716EF2
:1042D0007276777F83807F878A93938A8180766ED8
:1042E00071787F7B7C7F83819496958D7F6A7774CC
:1042F000737F7B706F858698848C9B8673888A7D9C
:104300008B8B7C6C6D6B77847375936D648A927DF7
:104310006F8D7E7A8F7F88918D8D807C69597373C4
:104320006C807969757772757F8B94989A838CA26B
:104330009E85748D85877174857D7D8176677373A5
:104340007C7F7A828F9C9378818E9484838B8C8CF3
:10435000847C8984766D647B6E7B7F7A7E7C737DC2
:10436000847F8D7F86888691816E87878670787C32
:10437000737771806E6D7D7772827F8D8F7D8C9269
:10438000748B857E8F81828B7E6E8B89777C827227
:104390007E80857C7E85787D7B79838778837F7D31
:1043A0008081847C7B7A8880758A746E7C80757548
:1043B0007A7B8F89898E8B87898F80768A768286B1
:1043C0008279707B7F93808C7C7B7B6D84868784F5
:1043D00087847A8186828489837C7B737A837D7BE0
:1043E000838176767E80777B7D6F748084747C8217
:1043F00086938680868C83807F8071777B747A76C3
:10440000847F7A878B91918B807F8780817C767E79
:104410007A7A7E7881847A7E8C8D7B7174787886C6
:10442000847F85827D7F7F7F7779837C798381809C
:1044300089868C938D7D7F796F75777777767F7E90
:104440007F8E8C858B8D82847F767C887D7E848632
:104450008987807A858285827B7E7F7B8282828249
:104460007F757A7B7E8173787378817E7979757BAD
:10447000828687857F7C7A747D847E797A82848245
:1044800088848A8585898C7A6E7370777979798446
:1044900084878B8E8A838987828689817C7B787EDC
:1044A0008082817B78757E807D7C88828281818814
:1044B000817E797877777D81797D86827A81808324
:1044C000868184828283827B777D838383828386D5
:1044D0008989858385858786888474716F72777BE7
:1044E000817C7D7D7D888480837F7E787A7F8280D9
:1044F00078767A7F7F827F797E817B7982848588D6
:104500008280807D7D7F7C7C7E7C7C7D8084847DC0
:1045100083888281858685808079787B7D8B888180
:104520007C7E808184898785827D80807E7673759C
:10453000757A8080827F7F7F7C817F838281878381
:10454000807D7C78767D7E7D7E7F7B7F8380838788
:104550008587888986837B7878768084837E807F50
:10456000818082877F7F7C7F8282807879767D825E
:1045700082817E7C84817B85817F8082828182773B
:104580007071787C7F8380807C7E8181817F838550
:104590008586857E787A7D82868885827D81827F08
:1045A0008787857D8284837F797A798184848282FA
:1045B0007A7B7D7E81807F7A7B8087857F7472772E
:1045C000797C7B75777E79858683878485818687EC
:1045D0008279747A787A8B897F82818289837B7FE2
:1045E00083848386867A787D7A7F8786807A7F7EC9
:1045F0007B898A797D8480868477767D7B757D88CA
:1046000082797D767C7E81857E807D87827D8178C2
:104610007B7C80837F7F8684818685838583848875
:1046200084847F7875787C84858085817D7C7B809F
:10463000817A7E87807C807F7C7B7F7E7F86817C89
:10464000767A7A7D817F867F7D7F7F7E858175709A
:104650007B968C6580977876877F73878283807F4F
:10466000807C80818A8F88867E7C7F7B80807C7640
:10467000858383797D88897E8E7F83B18A4953596A
:10468000526D9CAB59748DCAC6ADA8A8987E6C4D6E
:10469000532E2D376974BDCEC558277E763E6E8564
:1046A0004A9FDDB774A28B9FE8FFCCBFE0C8D39EC2
:1046B0005329143355464E1B000043544B2A000D1A
:1046C0006EF1DE7A1547C1C6783890F7DBCFEFFF81
:1046D000DFA9D2FFF4FFE25B42779C673B1C1F25FA
:1046E00015001B49101B5B8E993D113858330B3058
:1046F000838B2559678DFFFDBFDDF6F2FFEBFAA135
:1047000073C4E6C47F2A5DC9841D47B9B2714549A7
:1047100055190128385D3B211A7FD0A7794783C4FA
:10472000DDC2997CA8E3E0DBF0FDC3C7D4CEE3E6AD
:10473000EDBAC5C58E50447C66675B28112A464891
:104740004E472902061B150A0E0C0000120709220B
:10475000222936333F5583BDB7AE9F7C85B0AD8FE0
:10476000C3E8E7F4FFFFFFFFF6FAEEFCFEDBE2E34F
:10477000D7EDEED3D5E8DBCBC9C590999E8EAB9E25
:104780007E565656414B403F6D7A7F673A29182F27
:1047900044262D2E273E1C0015284C3D0527232599
:1047A0004A446A76625137373C607B69A9B8ACB439
:1047B0009E9CACA5B9C5B6C595ADB1B7F1D2A0A6C2
:1047C0009FACAC767FAFDDC9A98F6D545559776D1D
:1047D0008FB07E91814D615F6F7250725E39395931
:1047E00072574E8375575D5B60516C9DAB9995A96F
:1047F000A060586D8ACECC978691A69C8E9CB5DD24
:10480000C3837387A2C9CDCFE1DACFAFB1BEC6CF24
:10481000C2DACAA49D98C0C4ABC3DB9D87826F6E09
:1048200079A5B6BF7F5A3E2D4E2C2659656F50157F
:104830000C1A151539514D2D0C051A2640323535F7
:10484000272C12171E1E2E69835432313131273A1C
:1048500051615724476E582D4386B7C2775C6C87E9
:104860009190B7E2E9C797A1EBE6C3D5E3F6FFEB7A
:10487000D3E2E8EBF7F2FFFFF6E9D8EFF0E4F2FF5E
:10488000FFF1BEC1C6ACB3B3E4EBDEB573807D7699
:10489000615F90AB7F3A4362563B394968532623A8
:1048A0000D2A2C0E264E734A13090B0500041D5DBC
:1048B0005C220A082A3211132848381014384E4551
:1048C000403B68835C3B323A615B547895A39C9291
:1048D00078858B7A7EBEEFEDC9ACD7E8C8A5A9C6AE
:1048E000CDBFC0CDE3DCC9BDC6D8DEAF959E96B6C0
:1048F000ABC4CBD1F2E1CDAD949D9795B2CBEECECA
:10490000ACACA5B6B29EACB8C4B1878D997A695CDF
:1049100083B5A49F6A4A5059646D6A7B8A8971394C
:1049200050562F41586469443C2A3B5F5B543446DF
:10493000655B676346403F4A6168704F22211929D1
:10494000354F6A5865714F3E2C352E264F5E817C5F
:104950005E5751585D575D6871737B7B6B453F585F
:104960006D919CAB9C6B505A728F84879FA9C5C573
:10497000A99A9B9CA9C3E2F9ECD4BEC7E4D3D4D7CF
:10498000D3E3EAEAEAC3BDCDD1E4E7F1EBD6C7B69B
:10499000BCDFDECFBDC3DCE1CBB49D8C868DAAA18C
:1049A000B1B390857A7779626C6D6F8F967B4C2F5F
:1049B00027485E625D706E2E0D0F2A2B182740402F
:1049C00041583A12050002182D2F3D2D1912171FBC
:1049D00025352F1B1D46432C1D1C252C3D426D618A
:1049E00032333D546462676D7D9FAEA48A5B566F1F
:1049F0008DA2B9D5BCA393969AA6978E9A9DD0D432
:104A0000BCA8A6B6C4C8D2F3E9D4B6A7BABFC6D26A
:104A1000DEE4E8F0DAAA94A4AFBCD7DFEDD6B8B1F3
:104A2000A59FA3A28F92A9D2C59E8B81939D9AA880
:104A3000CEAE91928F9785818C9198A7B3B0776213
:104A40008586959AA5BEA39376707F69656E767C00
:104A5000A7984E465B7264537F92684738333B4356
:104A60005456647D715F4925140F273F31594825FD
:104A70002D1718221D181A16324C3C2D25282E29C8
:104A80003B5D4D2C281A393B27565F656D787E5863
:104A90003A322D4E768E9F705B725D6879899F8E5B
:104AA00098B7C0A58692ABA6B6E3E9C5B5A7A2B3F1
:104AB000B6CBD8D6ECEBE1D7ADA3A6B4CFE7F8E6FA
:104AC000CBDBE1D3DDDFDACAB6CBCFBAAB98A5B882
:104AD000B4C8E1BCA69F93AAA9959E9D9FC6BC9F02
:104AE000897C835E65A2B9A38F94978E7A7C828538
:104AF0006C6F887C71737472707EA47D5D593D3FCC
:104B00003C46605F506B8B694A433C270E336853C9
:104B10003E4136463642634F432D3A43384E433F7B
:104B200046477B794B4C3717243B49422F3754601B
:104B30005B6055443B305E7D606B684F4D4D5A66FF
:104B4000594B47677C738F80758694CAB18C996F77
:104B5000616E83ACB1ABB8D8D3B8C7C1A7A2A5E08A
:104B6000D3B1D7D4C2C8E4F9F1D3C5B9B6B3B9CF7C
:104B7000B4B6C8DCEFC2C0D5B3A1AFBFBFB0B2BA44
:104B8000BAC4B6B5AF8A828BB2A392B1927996A815
:104B9000A18B8F8A6B8083637B80616991A5807E06
:104BA00089463E55545C545C566278635C66523468
:104BB000586F4D4F5C503F4A697F695958343233C2
:104BC0002B3B3F2F375D685B5C65452A3E4E453C7D
:104BD00045363E6A6C5B6C63425484775D63524633
:104BE00049637A6860684B5C7B677D8A77708AB3BB
:104BF000A58A8C7E5554748E8C8E9892B1B7B8B3BA
:104C0000B2AF8A9FAD968D969E9095D1E7AACBD0F4
:104C1000A0BCB0C4B4A1C4ADC6DBB6BBC4B18E9554
:104C2000B3A2A3BB9D92BCC0B8AAB7A48AA695871D
:104C300099A3937C9EBC979BAF7E7A9E80777B8462
:104C400080769889636C74564D655B4D5D63414811
:104C50007462646B656C637A6C465A4A364E615373
:104C60004D5857445B8B6D6D775D5E7577676168F6
:104C70005B4E7582635B5D5A4C608462727D616ECF
:104C8000767F7265766A5C70684C606B696A749254
:104C900084798F88899F86838A797777868E767ED6
:104CA000867F8B868F9696919093928D7E8A948F35
:104CB00094A0A097A5A6A5B0A8A4A09F9F959695FF
:104CC000919CA5A8A7ABB0A2A3A8A8A2A1ADA69F9E
:104CD000A79F9FA28E9797969893A8A08B9E9B952F
:104CE0009A8C88807C827D7F8F8C877F7C80747695
:104CF0007366676D716C696E66626C676160657121
:104D0000656A705B5A4C3D494B5354424F63595F3F
:104D10006765645E6361545E6C5C494F656F707972
:104D2000736F6B6E857A66787D686E7D8070638246
:104D3000837291917979868D7D869D9D8985A2A3C7
:104D400094A09F9798929692788FA18D96A29DA7F6
:104D50009C96B79796BB978C9490AAA09EB0A08C77
:104D60009393827F7B89867281AB867DB4A6A4A74C
:104D7000A8AA82889667516E86898099AF8B8491A4
:104D8000A58082BA837489766B4D6D965D64947E3E
:104D90005D697967575F7482566DA95856946F5B49
:104DA000716953474F5E503E537766617F828462DC
:104DB0008DAA5C73550F274563A1C7C57F615B6AE8
:104DC000D67B2F274F8F4360846E8EBAA8838FA324
:104DD000714583A27D5E7BA2899E9980602E8DBBEA
:104DE0007784B39D888993897BA7BA9EAA9C7F7A92
:104DF0009CD4AD9A7378735DA7DDA65078B2BD8957
:104E000056323343726A93EAD5E9D0A2D8B53B4013
:104E10003239303284866BB0A0869469673E545232
:104E20004E565699D1D8EAE2A155584C3F575C747A
:104E300086A1ABD7D4B39A81565D56504F4D494D9C
:104E4000596B72638A6E73897D84ADA58E92766E7E
:104E5000B4CFBCABB0918BA994717BA17E8E8076D0
:104E600090968B73737A808978878E76443A515006
:104E700066657153565352695554687587938C5EB5
:104E80007CC6AD98AFBCA497778390998971676D04
:104E900060415C6DB3AB83738C8F697B766E4D44E0
:104EA0003D252B3B4C6B816644575B8FAB78A7B697
:104EB0006D66948AA5B3ACC1B19D949FA3B3A6932C
:104EC00098768BA06F849F8B8C9EB6C5B293AA9167
:104ED00056646D71704845563D6582415374552D39
:104EE0003B595F706275817FAAACACA5899CA5888F
:104EF0009ABD788BBEA7AB8D847E4E3A6674728E57
:104F00009BB7C4A3A5906094C98A78915B3F1B3A74
:104F10005E3838525140639EB399A5A3B7A4AFD56C
:104F2000A3B5D0C58B83A9AD7F8BC18E858A8285C1
:104F30007A6660574593DBB1A6BEA28D6877A17CE7
:104F400050644F2230516F4C3C5A4C2B5899957CF1
:104F50008B9D8474A3C7A283A9A36F7690A3826F4D
:104F60007D734D718B67636E7E623D6E9068677571
:104F70006E64637A7B5F596B652F55836A676A73CA
:104F80006B548FBBAFA69DAA857884968B727F7772
:104F90006A9AB0938B869D8E5A66866859647B7C2C
:104FA0007A999A756B886F6DABA294978792633BE1
:104FB0006C8B725F737C6D728D9AA0A5A6A6A2C839
:104FC000C1A494868A6B61899475757A877B6A8996
:104FD0008D756E798498B3ACA6897875616595A650
:104FE0008C836F6E403A606E5A4C56568CA89D99D1
:104FF0007F758B5F66857F766B727661628672667F
:105000006B5E70A6938895817875799EB7A3AB9BEC
:10501000948862707C74817E6981A6807177695EF4
:1050200044527B7F7D9585797974807C7685807408
:105030009AA17B74675C59506E988F9EA7887B6C91
:1050400056657577887F809E9B7D807D7A8773808B
:105050008E6F76776A64696E747E858B8E9AADA446
:105060008B838691837791927278756B6B646E8077
:105070008992A8B3AFBFB5937280A3A19F9FAD885B
:105080006E676C6F5E798A7172848F8F969C909731
:105090007C66869494B3A48C7A7973737E6E7872EE
:1050A000626885737B8F776D74787A91A5A49A89ED
:1050B00075746B6C75807574755B51616F6C6B6D1D
:1050C000786A76787A7E767773736F6B7491847F63
:1050D0008683847D818E9079665F6B7E87878F91D2
:1050E0007F7C7F8F92878983857F7B7B7473828AA5
:1050F0007F776C6D6D6A74747C7B737F8885818A21
:105100007B7D7B7E797D857F8C93877482868A7692
:1051100079888284868A96968180868A939DA192D8
:105120008D8B7D81828375777D787C7F82868E8A68
:105130007D8292908F84837E7A838287827E74853B
:105140008E9490828276707979737976828E92814C
:105150007E88A0957C898F857469698676687D775D
:105160007775727D777D83737D8D86827E817E8467
:10517000877F766765666E6764727F7A78787F77F7
:10518000666D7775777679958773797EA699777846
:105190006978686E8070747C81858A859581798A4A
:1051A000829496847B818C9A8E7D78817F747777C8
:1051B000836E5F7586878C777685869B8C738186F8
:1051C0008F94897E76788D9D725C60778B7C8888E1
:1051D000697E7F83A89F8E7A708A937B878D7E807D
:1051E000857C87937F727E8D967166897E9F926F94
:1051F0007B6B7D8F847B809192758E957E7D796CA3
:105200006D817577696C717180858381706690930B
:10521000847C737064879D766F626E8F818F896BDB
:105220006B77979A757F7F737D918C7A806E889764
:10523000928576948B73797A77787A766C6687869E
:105240006E92709E8D5A8F82A67E577A82918E7052
:105250007A896F85838286788A777E8D7F82806F58
:10526000808B8874739E918B7A718B929182777CFC
:10527000626F716F908A8A7B7E6C6D938C89837F5D
:1052800092827D8A7A6A898083846D8575787E7A38
:105290008C7B70785E80818374749882927B8B9E05
:1052A00081817976917A656E7579918A8181748729
:1052B000808A8B7C84878394858882818E887F6EA8
:1052C0006877827A85797B707B7C82867A84776E38
:1052D000686A7680858C8E7D8C81728574847E6E02
:1052E0007B7270836B7D9481827E80839481918EAA
:1052F0007B7C7096978585787D8A8D967C787C639B
:10530000887481897B8F72858B81728F8E84926B7A
:105310006773879F7362796584846E7A667083771A
:105320007C85767B86819984717E7E8C9180838258
:105330008794767B8F7E867C7D8F778484777F834E
:105340007B847A8296828D878080776683867B884D
:105350006B76856D7F7C758A688688718270748CA7
:10536000919589797F6B7E8B86817B81828E857B0F
:105370007F787F8D817E6D7C887A957B778686931A
:105380008583817E818171746E848D7C826D7A7853
:1053900079907B77837B7F84807F7B777F8889830D
:1053A000846A727A6E8F817E77617E8689936F7749
:1053B0007E87A17D86807291858B82658B808190AE
:1053C00081856F7882807D7D837C90917E767288E6
:1053D0007C837B687D718A8C717975818D7B758505
:1053E00072718A758F80798A6C998A7787718388C0
:1053F0007D89877F77708488787975859492826AB1
:105400007788909983727674888D808A77708A8481
:105410007887747A7E769781868C757A77808B828E
:105420007E7E83707E84767B7A837A8579786E6AD5
:105430007C748E8F7E827979988B8A7B6487849244
:105440008A747D8C7E777A7991837C7B7580848564
:10545000818B8D7E85728274798D7B747791847057
:105460006D79868880786F7C85817887757F9D7C53
:105470008586747B858E8C767C7D7789897B80752B
:10548000808C767B80848A7F7A83817D7D7C837E1D
:1054900087817686727F838387757C7F808B887512
:1054A0007D8380888281747198867A827B75728B05
:1054B000877A7B7585867C74718E8C6D6D81848313
:1054C000808A8C776C738894898A837978819483B5
:1054D00081877C8E8A857D827E738C7581847B7DBD
:1054E0007A757A73917F7192706A738F968393B491
:1054F0005255587FA67A75678776999A87585F7C48
:105500009D7D76D0AE44578A886089C55368BED6E3
:105510008B8D5E3B3D8FA238645B5B394A79877D1A
:10552000D3F6E5C045155AA0A180232177D2D279C0
:105530002F67E0D4601944B8E276208FBE6B3852F2
:105540007CC3F17F4143959585B0B9B5682114A816
:10555000CD66674E97B063B2D9C76B489AA9909948
:105560009072B8A34452585D9ABBBB6D3F63BBC3F6
:105570007F353FAD7D224C9F96751F4BB28D425DAE
:10558000988E8862344CB5A692827B955B5E72924F
:10559000C79D7A708EEEBA7B735A779AC3969B9E9C
:1055A0008F8B6FA770437685677D917B7FAA9F3431
:1055B00027498FAC6F926839656D89593B55628672
:1055C000674C817F7E514C4F3A778BA69FA06456E3
:1055D000968E756B546F97B4C29DBDB4AA7E7574D8
:1055E00074A19DA5CBEEAD949E7782AD785FA4DECD
:1055F000D0A78B55798E7D838289819D805B819137
:10560000786A5B2838A8CC8636365363776E5A4B57
:10561000836B6F8B7B794B41482A25405B867C846A
:1056200065605F59778C7D4D6C6F6586B4D7BB5CC8
:10563000072181B3D7B8B8CF83384089C5D6CBC14D
:10564000B8897FB3C7BE694A6C85AFC0D1B57A7DD2
:105650005F5B9FCBC2A4676C9491A9A8A64B4877C7
:105660008CC3CCAD745F5D605165B2ECB24D384314
:1056700089AA8E8B594E413B5A7677674B4D6458B9
:1056800083628A99362B428B9D81775035454370D2
:10569000A0A0764A4041446C99C39C5E61558D9DA3
:1056A000A79C795A697698AEA6B9A27C3A73BBC614
:1056B000B6787299B8C18F918371949AADB8C4BF0E
:1056C000917B664086D8EDCD82678D89A0B4A49485
:1056D00056656AA7C09A8E7471596383ADC8985491
:1056E000638D9B937C837367745A7CAEB58B413317
:1056F0004C577EA0A6834A6A567795737B4E3752E5
:105700006C7A708C916F5D2D396C8F9C6233576011
:105710007E8D6B5C373C59598EA8979F734C314DE9
:1057200092C6BF7881877B756D9E957A615279A705
:105730009F879994956F6588B8CE958C7785B8A02A
:105740009B8D7B939099A6A6B4857975618EACC824
:10575000996C7F8192978B9BA4826E6C7F9D9382C4
:10576000818A73697D86A4AF977794B6A37A6660C1
:105770006B775E6A76819595894E466EA3AD7E5EA7
:105780005C6B67797D6B635C414F7B6F767E727675
:105790005E5E64889A7359446C827969575C677558
:1057A0009394786C606D5B506E94B5865C625D78A6
:1057B000897A8F8E8E7D5B7BA2A394928A6F5574BB
:1057C00099B29777836E8E979C906472718BA5A720
:1057D000A5AA957E5D508EB0CAA990969BA98176A8
:1057E0007B7D796586AEABAC998F9C7E6A8FA1A4D8
:1057F0008D929391A489886C6C80879DABA2936CE9
:105800005A684E667A8E8F6572737D8C687A7A7666
:105810006E3C54859C9F838170505766766C557A98
:10582000817C7F687452565B507B9B9178706A5C78
:1058300054667C95875E6C7388866C65455D565BA7
:105840007D919B91868C7A6C94968E8780958782C9
:1058500078839B7F8B7C98B6B4A96A61695D78A2D6
:10586000A69F817891889391919E938C726A8EAF56
:10587000B3A2938E7D8CA0A794677196A4B18B710F
:1058800072627884ACC4AB9E865A63606F9498A4AD
:10589000757184858B7379543E4D5F8296937C82BB
:1058A0007F6741628B857C6975827C6A5A6E6B6505
:1058B000717C9BAB956B51353F57808E7B675167F1
:1058C0006B7E757E9E76473A587D8B92A08F786767
:1058D000546E928E6C648A8D907F71817177667937
:1058E000AABBB39F796957639289A5838CAD9EA1AA
:1058F000979590824E62959F979295886F45296BF8
:10590000AEBBADB2D7CDC9BAB7A884736F898E9438
:105910007D72695B6689BDADA7897D847B7A78AF2E
:105920009952323F758B9BA6A38D7157649B9080D3
:105930006158706871676A604E5E61859EA0A2863C
:1059400069494E7DA4826454526C617684857446A4
:10595000384E7D9396928A6E4E414F8DAB996C5F17
:105960005F71989E987B687C8693A4A4916A514944
:10597000597DA19D8A726D8083A1ADB38B57545E12
:1059800098B8CAB39B8F7D787F9EABAB7D6F8192B9
:10599000A5A399757C8F80A5BBD4B47E6A596F9AF4
:1059A000B8968078847A8197948E6744445B94B5E6
:1059B000C5AB7D5C55606D97AAAD6E4D4E789B95DD
:1059C000885F6A7A6C8183A093634F4567768F8D79
:1059D0007D5E585178A69687593D2C3779A5B997A1
:1059E0006B5B5557587B8B885F413A6A8E7F7A6232
:1059F0006C6D6080A5C99663565A767F98908577BE
:105A0000686994A59F8A6B625D648AC0DDB27B720F
:105A10007D837AA2CDBE845962A7C6B090869CA130
:105A20008987A1BFA26D5974887F919E8F6B5A6B35
:105A3000B4BCA385726A4E5A92BDB9835D6C7F79FE
:105A40006982A1A268354F8F9A7F606B8371667CF3
:105A50009BB18B52566C78748A8B7C5C4866858CC3
:105A60006C535E5B535B88B2B57E49597272639822
:105A7000B6A061295798A5745C83918B707CA59E14
:105A80007A5562757D6E859D94684F94B9A3757142
:105A900081767778A5C2B2785E7C897F659CC0A943
:105AA0006642799B95746F9697887D97B5A8846AAE
:105AB000777D765E89A28C6D6D95906F576F807A39
:105AC0007A7898A99D6C5A7C807267A7B797715CA9
:105AD00084876A6985A8A67F768582786A7A806BD2
